{
  "_format": "hh-sol-artifact-1",
  "contractName": "Marketplace",
  "sourceName": "contracts/Marketplace.sol",
  "abi": [
    {
      "inputs": [],
      "stateMutability": "nonpayable",
      "type": "constructor"
    },
    {
      "anonymous": false,
      "inputs": [
        {
          "indexed": true,
          "internalType": "address",
          "name": "account",
          "type": "address"
        },
        {
          "indexed": true,
          "internalType": "address",
          "name": "operator",
          "type": "address"
        },
        {
          "indexed": false,
          "internalType": "bool",
          "name": "approved",
          "type": "bool"
        }
      ],
      "name": "ApprovalForAll",
      "type": "event"
    },
    {
      "anonymous": false,
      "inputs": [
        {
          "indexed": true,
          "internalType": "uint256",
          "name": "tokenId",
          "type": "uint256"
        },
        {
          "indexed": false,
          "internalType": "address",
          "name": "owner",
          "type": "address"
        },
        {
          "indexed": false,
          "internalType": "address",
          "name": "seller",
          "type": "address"
        },
        {
          "indexed": false,
          "internalType": "uint256",
          "name": "price",
          "type": "uint256"
        },
        {
          "indexed": false,
          "internalType": "uint256",
          "name": "amount",
          "type": "uint256"
        },
        {
          "indexed": false,
          "internalType": "bool",
          "name": "currentlyListed",
          "type": "bool"
        }
      ],
      "name": "MediaListedSuccess",
      "type": "event"
    },
    {
      "anonymous": false,
      "inputs": [
        {
          "indexed": true,
          "internalType": "address",
          "name": "operator",
          "type": "address"
        },
        {
          "indexed": true,
          "internalType": "address",
          "name": "from",
          "type": "address"
        },
        {
          "indexed": true,
          "internalType": "address",
          "name": "to",
          "type": "address"
        },
        {
          "indexed": false,
          "internalType": "uint256[]",
          "name": "ids",
          "type": "uint256[]"
        },
        {
          "indexed": false,
          "internalType": "uint256[]",
          "name": "values",
          "type": "uint256[]"
        }
      ],
      "name": "TransferBatch",
      "type": "event"
    },
    {
      "anonymous": false,
      "inputs": [
        {
          "indexed": true,
          "internalType": "address",
          "name": "operator",
          "type": "address"
        },
        {
          "indexed": true,
          "internalType": "address",
          "name": "from",
          "type": "address"
        },
        {
          "indexed": true,
          "internalType": "address",
          "name": "to",
          "type": "address"
        },
        {
          "indexed": false,
          "internalType": "uint256",
          "name": "id",
          "type": "uint256"
        },
        {
          "indexed": false,
          "internalType": "uint256",
          "name": "value",
          "type": "uint256"
        }
      ],
      "name": "TransferSingle",
      "type": "event"
    },
    {
      "anonymous": false,
      "inputs": [
        {
          "indexed": false,
          "internalType": "string",
          "name": "value",
          "type": "string"
        },
        {
          "indexed": true,
          "internalType": "uint256",
          "name": "id",
          "type": "uint256"
        }
      ],
      "name": "URI",
      "type": "event"
    },
    {
      "inputs": [
        {
          "internalType": "address",
          "name": "account",
          "type": "address"
        },
        {
          "internalType": "uint256",
          "name": "id",
          "type": "uint256"
        }
      ],
      "name": "balanceOf",
      "outputs": [
        {
          "internalType": "uint256",
          "name": "",
          "type": "uint256"
        }
      ],
      "stateMutability": "view",
      "type": "function"
    },
    {
      "inputs": [
        {
          "internalType": "address[]",
          "name": "accounts",
          "type": "address[]"
        },
        {
          "internalType": "uint256[]",
          "name": "ids",
          "type": "uint256[]"
        }
      ],
      "name": "balanceOfBatch",
      "outputs": [
        {
          "internalType": "uint256[]",
          "name": "",
          "type": "uint256[]"
        }
      ],
      "stateMutability": "view",
      "type": "function"
    },
    {
      "inputs": [
        {
          "internalType": "string",
          "name": "tokenURI",
          "type": "string"
        },
        {
          "internalType": "uint256",
          "name": "price",
          "type": "uint256"
        },
        {
          "internalType": "uint256",
          "name": "amount",
          "type": "uint256"
        }
      ],
      "name": "createMedia",
      "outputs": [
        {
          "internalType": "uint256",
          "name": "",
          "type": "uint256"
        }
      ],
      "stateMutability": "payable",
      "type": "function"
    },
    {
      "inputs": [
        {
          "internalType": "uint256",
          "name": "tokenId",
          "type": "uint256"
        },
        {
          "internalType": "uint256",
          "name": "amount",
          "type": "uint256"
        }
      ],
      "name": "executeSale",
      "outputs": [],
      "stateMutability": "payable",
      "type": "function"
    },
    {
      "inputs": [],
      "name": "getAllTokens",
      "outputs": [
        {
          "components": [
            {
              "internalType": "uint256",
              "name": "tokenID",
              "type": "uint256"
            },
            {
              "internalType": "address payable",
              "name": "owner",
              "type": "address"
            },
            {
              "internalType": "address payable",
              "name": "seller",
              "type": "address"
            },
            {
              "internalType": "uint256",
              "name": "price",
              "type": "uint256"
            },
            {
              "internalType": "uint256",
              "name": "amountListed",
              "type": "uint256"
            }
          ],
          "internalType": "struct Marketplace.Media[]",
          "name": "",
          "type": "tuple[]"
        }
      ],
      "stateMutability": "view",
      "type": "function"
    },
    {
      "inputs": [],
      "name": "getAvailableTokens",
      "outputs": [
        {
          "components": [
            {
              "internalType": "uint256",
              "name": "tokenID",
              "type": "uint256"
            },
            {
              "internalType": "address payable",
              "name": "owner",
              "type": "address"
            },
            {
              "internalType": "address payable",
              "name": "seller",
              "type": "address"
            },
            {
              "internalType": "uint256",
              "name": "price",
              "type": "uint256"
            },
            {
              "internalType": "uint256",
              "name": "amountListed",
              "type": "uint256"
            }
          ],
          "internalType": "struct Marketplace.Media[]",
          "name": "",
          "type": "tuple[]"
        }
      ],
      "stateMutability": "view",
      "type": "function"
    },
    {
      "inputs": [],
      "name": "getCurrentToken",
      "outputs": [
        {
          "internalType": "uint256",
          "name": "",
          "type": "uint256"
        }
      ],
      "stateMutability": "view",
      "type": "function"
    },
    {
      "inputs": [],
      "name": "getLatestIdToMedia",
      "outputs": [
        {
          "components": [
            {
              "internalType": "uint256",
              "name": "tokenID",
              "type": "uint256"
            },
            {
              "internalType": "address payable",
              "name": "owner",
              "type": "address"
            },
            {
              "internalType": "address payable",
              "name": "seller",
              "type": "address"
            },
            {
              "internalType": "uint256",
              "name": "price",
              "type": "uint256"
            },
            {
              "internalType": "uint256",
              "name": "amountListed",
              "type": "uint256"
            }
          ],
          "internalType": "struct Marketplace.Media",
          "name": "",
          "type": "tuple"
        }
      ],
      "stateMutability": "view",
      "type": "function"
    },
    {
      "inputs": [
        {
          "internalType": "uint256",
          "name": "tokenId",
          "type": "uint256"
        }
      ],
      "name": "getListedForTokenId",
      "outputs": [
        {
          "components": [
            {
              "internalType": "uint256",
              "name": "tokenID",
              "type": "uint256"
            },
            {
              "internalType": "address payable",
              "name": "owner",
              "type": "address"
            },
            {
              "internalType": "address payable",
              "name": "seller",
              "type": "address"
            },
            {
              "internalType": "uint256",
              "name": "price",
              "type": "uint256"
            },
            {
              "internalType": "uint256",
              "name": "amountListed",
              "type": "uint256"
            }
          ],
          "internalType": "struct Marketplace.Media",
          "name": "",
          "type": "tuple"
        }
      ],
      "stateMutability": "view",
      "type": "function"
    },
    {
      "inputs": [],
      "name": "getMyTokens",
      "outputs": [
        {
          "components": [
            {
              "internalType": "uint256",
              "name": "tokenID",
              "type": "uint256"
            },
            {
              "internalType": "address payable",
              "name": "owner",
              "type": "address"
            },
            {
              "internalType": "address payable",
              "name": "seller",
              "type": "address"
            },
            {
              "internalType": "uint256",
              "name": "price",
              "type": "uint256"
            },
            {
              "internalType": "uint256",
              "name": "amountListed",
              "type": "uint256"
            }
          ],
          "internalType": "struct Marketplace.Media[]",
          "name": "",
          "type": "tuple[]"
        }
      ],
      "stateMutability": "view",
      "type": "function"
    },
    {
      "inputs": [],
      "name": "getPublishPrice",
      "outputs": [
        {
          "internalType": "uint256",
          "name": "",
          "type": "uint256"
        }
      ],
      "stateMutability": "view",
      "type": "function"
    },
    {
      "inputs": [
        {
          "internalType": "address",
          "name": "account",
          "type": "address"
        },
        {
          "internalType": "address",
          "name": "operator",
          "type": "address"
        }
      ],
      "name": "isApprovedForAll",
      "outputs": [
        {
          "internalType": "bool",
          "name": "",
          "type": "bool"
        }
      ],
      "stateMutability": "view",
      "type": "function"
    },
    {
      "inputs": [
        {
          "internalType": "address",
          "name": "_operator",
          "type": "address"
        },
        {
          "internalType": "address",
          "name": "_from",
          "type": "address"
        },
        {
          "internalType": "uint256[]",
          "name": "_ids",
          "type": "uint256[]"
        },
        {
          "internalType": "uint256[]",
          "name": "_values",
          "type": "uint256[]"
        },
        {
          "internalType": "bytes",
          "name": "_data",
          "type": "bytes"
        }
      ],
      "name": "onERC1155BatchReceived",
      "outputs": [
        {
          "internalType": "bytes4",
          "name": "",
          "type": "bytes4"
        }
      ],
      "stateMutability": "nonpayable",
      "type": "function"
    },
    {
      "inputs": [
        {
          "internalType": "address",
          "name": "operator",
          "type": "address"
        },
        {
          "internalType": "address",
          "name": "from",
          "type": "address"
        },
        {
          "internalType": "uint256",
          "name": "id",
          "type": "uint256"
        },
        {
          "internalType": "uint256",
          "name": "value",
          "type": "uint256"
        },
        {
          "internalType": "bytes",
          "name": "data",
          "type": "bytes"
        }
      ],
      "name": "onERC1155Received",
      "outputs": [
        {
          "internalType": "bytes4",
          "name": "",
          "type": "bytes4"
        }
      ],
      "stateMutability": "pure",
      "type": "function"
    },
    {
      "inputs": [
        {
          "internalType": "address",
          "name": "from",
          "type": "address"
        },
        {
          "internalType": "address",
          "name": "to",
          "type": "address"
        },
        {
          "internalType": "uint256[]",
          "name": "ids",
          "type": "uint256[]"
        },
        {
          "internalType": "uint256[]",
          "name": "amounts",
          "type": "uint256[]"
        },
        {
          "internalType": "bytes",
          "name": "data",
          "type": "bytes"
        }
      ],
      "name": "safeBatchTransferFrom",
      "outputs": [],
      "stateMutability": "nonpayable",
      "type": "function"
    },
    {
      "inputs": [
        {
          "internalType": "address",
          "name": "from",
          "type": "address"
        },
        {
          "internalType": "address",
          "name": "to",
          "type": "address"
        },
        {
          "internalType": "uint256",
          "name": "id",
          "type": "uint256"
        },
        {
          "internalType": "uint256",
          "name": "amount",
          "type": "uint256"
        },
        {
          "internalType": "bytes",
          "name": "data",
          "type": "bytes"
        }
      ],
      "name": "safeTransferFrom",
      "outputs": [],
      "stateMutability": "nonpayable",
      "type": "function"
    },
    {
      "inputs": [
        {
          "internalType": "address",
          "name": "operator",
          "type": "address"
        },
        {
          "internalType": "bool",
          "name": "approved",
          "type": "bool"
        }
      ],
      "name": "setApprovalForAll",
      "outputs": [],
      "stateMutability": "nonpayable",
      "type": "function"
    },
    {
      "inputs": [
        {
          "internalType": "bytes4",
          "name": "interfaceId",
          "type": "bytes4"
        }
      ],
      "name": "supportsInterface",
      "outputs": [
        {
          "internalType": "bool",
          "name": "",
          "type": "bool"
        }
      ],
      "stateMutability": "view",
      "type": "function"
    },
    {
      "inputs": [
        {
          "internalType": "address",
          "name": "from",
          "type": "address"
        },
        {
          "internalType": "address",
          "name": "to",
          "type": "address"
        },
        {
          "internalType": "uint256",
          "name": "tokenId",
          "type": "uint256"
        },
        {
          "internalType": "uint256",
          "name": "amount",
          "type": "uint256"
        }
      ],
      "name": "transfer",
      "outputs": [],
      "stateMutability": "nonpayable",
      "type": "function"
    },
    {
      "inputs": [
        {
          "internalType": "address",
          "name": "from",
          "type": "address"
        },
        {
          "internalType": "address",
          "name": "to",
          "type": "address"
        },
        {
          "internalType": "uint256[]",
          "name": "tokenIds",
          "type": "uint256[]"
        },
        {
          "internalType": "uint256[]",
          "name": "amounts",
          "type": "uint256[]"
        }
      ],
      "name": "transferBatch",
      "outputs": [],
      "stateMutability": "nonpayable",
      "type": "function"
    },
    {
      "inputs": [
        {
          "internalType": "uint256",
          "name": "_publishPrice",
          "type": "uint256"
        }
      ],
      "name": "updateListedPrice",
      "outputs": [],
      "stateMutability": "payable",
      "type": "function"
    },
    {
      "inputs": [
        {
          "internalType": "uint256",
          "name": "tokenId",
          "type": "uint256"
        }
      ],
      "name": "uri",
      "outputs": [
        {
          "internalType": "string",
          "name": "",
          "type": "string"
        }
      ],
      "stateMutability": "view",
      "type": "function"
    }
  ],
  "bytecode": "0x608060405266038d7ea4c680006006553480156200001c57600080fd5b506040518060400160405280600681526020017f556e7573656400000000000000000000000000000000000000000000000000008152506200006481620000bc60201b60201c565b5033600560006101000a81548173ffffffffffffffffffffffffffffffffffffffff021916908373ffffffffffffffffffffffffffffffffffffffff16021790555060006003819055506000600481905550620001ed565b8060029080519060200190620000d4929190620000d8565b5050565b828054620000e690620001b7565b90600052602060002090601f0160209004810192826200010a576000855562000156565b82601f106200012557805160ff191683800117855562000156565b8280016001018555821562000156579182015b828111156200015557825182559160200191906001019062000138565b5b50905062000165919062000169565b5090565b5b80821115620001845760008160009055506001016200016a565b5090565b7f4e487b7100000000000000000000000000000000000000000000000000000000600052602260045260246000fd5b60006002820490506001821680620001d057607f821691505b60208210811415620001e757620001e662000188565b5b50919050565b61467580620001fd6000396000f3fe6080604052600436106101345760003560e01c806398c3df16116100ab578063ce3c64b21161006f578063ce3c64b21461042f578063e35568cb1461045f578063e985e9c51461048a578063ef2d1746146104c7578063f23a6e61146104f2578063f242432a1461052f57610134565b806398c3df16146103455780639e52ce1414610382578063a22cb4651461039e578063bc197c81146103c7578063c5bcf99b1461040457610134565b806310232575116100fd57806310232575146102425780632a5c792a1461026d5780632eb2c2d6146102985780634437b60b146102c15780634e1273f4146102dd5780635b3b136a1461031a57610134565b8062fdd58e1461013957806301ffc9a7146101765780630411b252146101b35780630731a369146101dc5780630e89341c14610205575b600080fd5b34801561014557600080fd5b50610160600480360381019061015b9190612a30565b610558565b60405161016d9190612a7f565b60405180910390f35b34801561018257600080fd5b5061019d60048036038101906101989190612af2565b610621565b6040516101aa9190612b3a565b60405180910390f35b3480156101bf57600080fd5b506101da60048036038101906101d59190612b55565b610703565b005b3480156101e857600080fd5b5061020360048036038101906101fe9190612d15565b610725565b005b34801561021157600080fd5b5061022c60048036038101906102279190612db4565b610747565b6040516102399190612e69565b60405180910390f35b34801561024e57600080fd5b506102576107ec565b6040516102649190612a7f565b60405180910390f35b34801561027957600080fd5b506102826107f6565b60405161028f9190612fd2565b60405180910390f35b3480156102a457600080fd5b506102bf60048036038101906102ba91906130a9565b6109ad565b005b6102db60048036038101906102d69190613178565b610a4e565b005b3480156102e957600080fd5b5061030460048036038101906102ff919061327b565b610ce1565b60405161031191906133a2565b60405180910390f35b34801561032657600080fd5b5061032f610dfa565b60405161033c9190612fd2565b60405180910390f35b34801561035157600080fd5b5061036c60048036038101906103679190612db4565b6111c0565b604051610379919061342c565b60405180910390f35b61039c60048036038101906103979190612db4565b6112b7565b005b3480156103aa57600080fd5b506103c560048036038101906103c09190613473565b611351565b005b3480156103d357600080fd5b506103ee60048036038101906103e99190613564565b611367565b6040516103fb919061364f565b60405180910390f35b34801561041057600080fd5b50610419611375565b604051610426919061342c565b60405180910390f35b6104496004803603810190610444919061370b565b611472565b6040516104569190612a7f565b60405180910390f35b34801561046b57600080fd5b50610474611599565b6040516104819190612fd2565b60405180910390f35b34801561049657600080fd5b506104b160048036038101906104ac919061377a565b6117d9565b6040516104be9190612b3a565b60405180910390f35b3480156104d357600080fd5b506104dc61186d565b6040516104e99190612a7f565b60405180910390f35b3480156104fe57600080fd5b50610519600480360381019061051491906137ba565b611877565b604051610526919061364f565b60405180910390f35b34801561053b57600080fd5b5061055660048036038101906105519190613854565b61188d565b005b60008073ffffffffffffffffffffffffffffffffffffffff168373ffffffffffffffffffffffffffffffffffffffff1614156105c9576040517f08c379a00000000000000000000000000000000000000000000000000000000081526004016105c09061395d565b60405180910390fd5b60008083815260200190815260200160002060008473ffffffffffffffffffffffffffffffffffffffff1673ffffffffffffffffffffffffffffffffffffffff16815260200190815260200160002054905092915050565b60007fd9b67a26000000000000000000000000000000000000000000000000000000007bffffffffffffffffffffffffffffffffffffffffffffffffffffffff1916827bffffffffffffffffffffffffffffffffffffffffffffffffffffffff191614806106ec57507f0e89341c000000000000000000000000000000000000000000000000000000007bffffffffffffffffffffffffffffffffffffffffffffffffffffffff1916827bffffffffffffffffffffffffffffffffffffffffffffffffffffffff1916145b806106fc57506106fb8261192e565b5b9050919050565b61071f8484848460405180602001604052806000815250611998565b50505050565b6107418484848460405180602001604052806000815250611c34565b50505050565b6060600860008381526020019081526020016000208054610767906139ac565b80601f0160208091040260200160405190810160405280929190818152602001828054610793906139ac565b80156107e05780601f106107b5576101008083540402835291602001916107e0565b820191906000526020600020905b8154815290600101906020018083116107c357829003601f168201915b50505050509050919050565b6000600654905090565b60606000600354905060008167ffffffffffffffff81111561081b5761081a612bd2565b5b60405190808252806020026020018201604052801561085457816020015b61084161288a565b8152602001906001900390816108395790505b5090506000805b838110156109a35760006001826108729190613a0d565b90506000600760008381526020019081526020016000209050806040518060a0016040529081600082015481526020016001820160009054906101000a900473ffffffffffffffffffffffffffffffffffffffff1673ffffffffffffffffffffffffffffffffffffffff1673ffffffffffffffffffffffffffffffffffffffff1681526020016002820160009054906101000a900473ffffffffffffffffffffffffffffffffffffffff1673ffffffffffffffffffffffffffffffffffffffff1673ffffffffffffffffffffffffffffffffffffffff1681526020016003820154815260200160048201548152505085858151811061097457610973613a63565b5b602002602001018190525060018461098c9190613a0d565b93505050808061099b90613a92565b91505061085b565b5081935050505090565b6109b5611f56565b73ffffffffffffffffffffffffffffffffffffffff168573ffffffffffffffffffffffffffffffffffffffff1614806109fb57506109fa856109f5611f56565b6117d9565b5b610a3a576040517f08c379a0000000000000000000000000000000000000000000000000000000008152600401610a3190613b4d565b60405180910390fd5b610a478585858585611c34565b5050505050565b60006007600084815260200190815260200160002060030154905060006007600085815260200190815260200160002060020160009054906101000a900473ffffffffffffffffffffffffffffffffffffffff1690508260076000868152602001908152602001600020600401541015610afd576040517f08c379a0000000000000000000000000000000000000000000000000000000008152600401610af490613bdf565b60405180910390fd5b8282610b099190613bff565b3414610b4a576040517f08c379a0000000000000000000000000000000000000000000000000000000008152600401610b4190613ccb565b60405180910390fd5b826007600086815260200190815260200160002060040154610b6c9190613ceb565b6007600086815260200190815260200160002060040181905550336007600086815260200190815260200160002060020160006101000a81548173ffffffffffffffffffffffffffffffffffffffff021916908373ffffffffffffffffffffffffffffffffffffffff16021790555060005b83811015610c115760046000815480929190610bf990613a92565b91905055508080610c0990613a92565b915050610bde565b50610c1e30338686610703565b610c29816001611351565b600560009054906101000a900473ffffffffffffffffffffffffffffffffffffffff1673ffffffffffffffffffffffffffffffffffffffff166108fc6006549081150290604051600060405180830381858888f19350505050158015610c93573d6000803e3d6000fd5b508073ffffffffffffffffffffffffffffffffffffffff166108fc349081150290604051600060405180830381858888f19350505050158015610cda573d6000803e3d6000fd5b5050505050565b60608151835114610d27576040517f08c379a0000000000000000000000000000000000000000000000000000000008152600401610d1e90613d91565b60405180910390fd5b6000835167ffffffffffffffff811115610d4457610d43612bd2565b5b604051908082528060200260200182016040528015610d725781602001602082028036833780820191505090505b50905060005b8451811015610def57610dbf858281518110610d9757610d96613a63565b5b6020026020010151858381518110610db257610db1613a63565b5b6020026020010151610558565b828281518110610dd257610dd1613a63565b5b60200260200101818152505080610de890613a92565b9050610d78565b508091505092915050565b60606000600354905060008060005b83811015610f22573373ffffffffffffffffffffffffffffffffffffffff1660076000600184610e399190613a0d565b815260200190815260200160002060010160009054906101000a900473ffffffffffffffffffffffffffffffffffffffff1673ffffffffffffffffffffffffffffffffffffffff161480610efa57503373ffffffffffffffffffffffffffffffffffffffff1660076000600184610eb09190613a0d565b815260200190815260200160002060020160009054906101000a900473ffffffffffffffffffffffffffffffffffffffff1673ffffffffffffffffffffffffffffffffffffffff16145b15610f0f57600183610f0c9190613a0d565b92505b8080610f1a90613a92565b915050610e09565b5060008267ffffffffffffffff811115610f3f57610f3e612bd2565b5b604051908082528060200260200182016040528015610f7857816020015b610f6561288a565b815260200190600190039081610f5d5790505b50905060005b848110156111b5573373ffffffffffffffffffffffffffffffffffffffff1660076000600184610fae9190613a0d565b815260200190815260200160002060010160009054906101000a900473ffffffffffffffffffffffffffffffffffffffff1673ffffffffffffffffffffffffffffffffffffffff16148061106f57503373ffffffffffffffffffffffffffffffffffffffff16600760006001846110259190613a0d565b815260200190815260200160002060020160009054906101000a900473ffffffffffffffffffffffffffffffffffffffff1673ffffffffffffffffffffffffffffffffffffffff16145b156111a25760006001826110839190613a0d565b90506000600760008381526020019081526020016000209050806040518060a0016040529081600082015481526020016001820160009054906101000a900473ffffffffffffffffffffffffffffffffffffffff1673ffffffffffffffffffffffffffffffffffffffff1673ffffffffffffffffffffffffffffffffffffffff1681526020016002820160009054906101000a900473ffffffffffffffffffffffffffffffffffffffff1673ffffffffffffffffffffffffffffffffffffffff1673ffffffffffffffffffffffffffffffffffffffff1681526020016003820154815260200160048201548152505084868151811061118557611184613a63565b5b602002602001018190525060018561119d9190613a0d565b945050505b80806111ad90613a92565b915050610f7e565b508094505050505090565b6111c861288a565b600760008381526020019081526020016000206040518060a0016040529081600082015481526020016001820160009054906101000a900473ffffffffffffffffffffffffffffffffffffffff1673ffffffffffffffffffffffffffffffffffffffff1673ffffffffffffffffffffffffffffffffffffffff1681526020016002820160009054906101000a900473ffffffffffffffffffffffffffffffffffffffff1673ffffffffffffffffffffffffffffffffffffffff1673ffffffffffffffffffffffffffffffffffffffff168152602001600382015481526020016004820154815250509050919050565b3373ffffffffffffffffffffffffffffffffffffffff16600560009054906101000a900473ffffffffffffffffffffffffffffffffffffffff1673ffffffffffffffffffffffffffffffffffffffff1614611347576040517f08c379a000000000000000000000000000000000000000000000000000000000815260040161133e90613dfd565b60405180910390fd5b8060068190555050565b61136361135c611f56565b8383611f5e565b5050565b600098975050505050505050565b61137d61288a565b60006003549050600760008281526020019081526020016000206040518060a0016040529081600082015481526020016001820160009054906101000a900473ffffffffffffffffffffffffffffffffffffffff1673ffffffffffffffffffffffffffffffffffffffff1673ffffffffffffffffffffffffffffffffffffffff1681526020016002820160009054906101000a900473ffffffffffffffffffffffffffffffffffffffff1673ffffffffffffffffffffffffffffffffffffffff1673ffffffffffffffffffffffffffffffffffffffff1681526020016003820154815260200160048201548152505091505090565b600060065434146114b8576040517f08c379a00000000000000000000000000000000000000000000000000000000081526004016114af90613e69565b60405180910390fd5b600083116114fb576040517f08c379a00000000000000000000000000000000000000000000000000000000081526004016114f290613ed5565b60405180910390fd5b6000821161153e576040517f08c379a000000000000000000000000000000000000000000000000000000000815260040161153590613f41565b60405180910390fd5b6003600081548092919061155190613a92565b91905055506000600354905061157933826001604051806020016040528060008152506120cb565b611583818661227c565b61158e8185856122a8565b809150509392505050565b60606000600354905060008060005b838110156115fe576000600760006001846115c39190613a0d565b81526020019081526020016000206004015411156115eb576001836115e89190613a0d565b92505b80806115f690613a92565b9150506115a8565b5060008267ffffffffffffffff81111561161b5761161a612bd2565b5b60405190808252806020026020018201604052801561165457816020015b61164161288a565b8152602001906001900390816116395790505b50905060005b848110156117ce576000600760006001846116759190613a0d565b81526020019081526020016000206004015411156117bb57600060018261169c9190613a0d565b90506000600760008381526020019081526020016000209050806040518060a0016040529081600082015481526020016001820160009054906101000a900473ffffffffffffffffffffffffffffffffffffffff1673ffffffffffffffffffffffffffffffffffffffff1673ffffffffffffffffffffffffffffffffffffffff1681526020016002820160009054906101000a900473ffffffffffffffffffffffffffffffffffffffff1673ffffffffffffffffffffffffffffffffffffffff1673ffffffffffffffffffffffffffffffffffffffff1681526020016003820154815260200160048201548152505084868151811061179e5761179d613a63565b5b60200260200101819052506001856117b69190613a0d565b945050505b80806117c690613a92565b91505061165a565b508094505050505090565b6000600160008473ffffffffffffffffffffffffffffffffffffffff1673ffffffffffffffffffffffffffffffffffffffff16815260200190815260200160002060008373ffffffffffffffffffffffffffffffffffffffff1673ffffffffffffffffffffffffffffffffffffffff16815260200190815260200160002060009054906101000a900460ff16905092915050565b6000600354905090565b600063f23a6e6160e01b90509695505050505050565b611895611f56565b73ffffffffffffffffffffffffffffffffffffffff168573ffffffffffffffffffffffffffffffffffffffff1614806118db57506118da856118d5611f56565b6117d9565b5b61191a576040517f08c379a000000000000000000000000000000000000000000000000000000000815260040161191190613b4d565b60405180910390fd5b6119278585858585611998565b5050505050565b60007f01ffc9a7000000000000000000000000000000000000000000000000000000007bffffffffffffffffffffffffffffffffffffffffffffffffffffffff1916827bffffffffffffffffffffffffffffffffffffffffffffffffffffffff1916149050919050565b600073ffffffffffffffffffffffffffffffffffffffff168473ffffffffffffffffffffffffffffffffffffffff161415611a08576040517f08c379a00000000000000000000000000000000000000000000000000000000081526004016119ff90613fd3565b60405180910390fd5b6000611a12611f56565b90506000611a1f8561240f565b90506000611a2c8561240f565b9050611a3c838989858589612489565b600080600088815260200190815260200160002060008a73ffffffffffffffffffffffffffffffffffffffff1673ffffffffffffffffffffffffffffffffffffffff16815260200190815260200160002054905085811015611ad3576040517f08c379a0000000000000000000000000000000000000000000000000000000008152600401611aca90614065565b60405180910390fd5b85810360008089815260200190815260200160002060008b73ffffffffffffffffffffffffffffffffffffffff1673ffffffffffffffffffffffffffffffffffffffff168152602001908152602001600020819055508560008089815260200190815260200160002060008a73ffffffffffffffffffffffffffffffffffffffff1673ffffffffffffffffffffffffffffffffffffffff1681526020019081526020016000206000828254611b889190613a0d565b925050819055508773ffffffffffffffffffffffffffffffffffffffff168973ffffffffffffffffffffffffffffffffffffffff168573ffffffffffffffffffffffffffffffffffffffff167fc3d58168c5ae7397731d063d5bbf3d657854427343f4c083240f7aacaa2d0f628a8a604051611c05929190614085565b60405180910390a4611c1b848a8a86868a612491565b611c29848a8a8a8a8a612499565b505050505050505050565b8151835114611c78576040517f08c379a0000000000000000000000000000000000000000000000000000000008152600401611c6f90614120565b60405180910390fd5b600073ffffffffffffffffffffffffffffffffffffffff168473ffffffffffffffffffffffffffffffffffffffff161415611ce8576040517f08c379a0000000000000000000000000000000000000000000000000000000008152600401611cdf90613fd3565b60405180910390fd5b6000611cf2611f56565b9050611d02818787878787612489565b60005b8451811015611eb3576000858281518110611d2357611d22613a63565b5b602002602001015190506000858381518110611d4257611d41613a63565b5b60200260200101519050600080600084815260200190815260200160002060008b73ffffffffffffffffffffffffffffffffffffffff1673ffffffffffffffffffffffffffffffffffffffff16815260200190815260200160002054905081811015611de3576040517f08c379a0000000000000000000000000000000000000000000000000000000008152600401611dda90614065565b60405180910390fd5b81810360008085815260200190815260200160002060008c73ffffffffffffffffffffffffffffffffffffffff1673ffffffffffffffffffffffffffffffffffffffff168152602001908152602001600020819055508160008085815260200190815260200160002060008b73ffffffffffffffffffffffffffffffffffffffff1673ffffffffffffffffffffffffffffffffffffffff1681526020019081526020016000206000828254611e989190613a0d565b9250508190555050505080611eac90613a92565b9050611d05565b508473ffffffffffffffffffffffffffffffffffffffff168673ffffffffffffffffffffffffffffffffffffffff168273ffffffffffffffffffffffffffffffffffffffff167f4a39dc06d4c0dbc64b70af90fd698a233a518aa5d07e595d983b8c0526c8f7fb8787604051611f2a929190614140565b60405180910390a4611f40818787878787612491565b611f4e818787878787612680565b505050505050565b600033905090565b8173ffffffffffffffffffffffffffffffffffffffff168373ffffffffffffffffffffffffffffffffffffffff161415611fcd576040517f08c379a0000000000000000000000000000000000000000000000000000000008152600401611fc4906141e9565b60405180910390fd5b80600160008573ffffffffffffffffffffffffffffffffffffffff1673ffffffffffffffffffffffffffffffffffffffff16815260200190815260200160002060008473ffffffffffffffffffffffffffffffffffffffff1673ffffffffffffffffffffffffffffffffffffffff16815260200190815260200160002060006101000a81548160ff0219169083151502179055508173ffffffffffffffffffffffffffffffffffffffff168373ffffffffffffffffffffffffffffffffffffffff167f17307eab39ab6107e8899845ad3d59bd9653f200f220920489ca2b5937696c31836040516120be9190612b3a565b60405180910390a3505050565b600073ffffffffffffffffffffffffffffffffffffffff168473ffffffffffffffffffffffffffffffffffffffff16141561213b576040517f08c379a00000000000000000000000000000000000000000000000000000000081526004016121329061427b565b60405180910390fd5b6000612145611f56565b905060006121528561240f565b9050600061215f8561240f565b905061217083600089858589612489565b8460008088815260200190815260200160002060008973ffffffffffffffffffffffffffffffffffffffff1673ffffffffffffffffffffffffffffffffffffffff16815260200190815260200160002060008282546121cf9190613a0d565b925050819055508673ffffffffffffffffffffffffffffffffffffffff16600073ffffffffffffffffffffffffffffffffffffffff168473ffffffffffffffffffffffffffffffffffffffff167fc3d58168c5ae7397731d063d5bbf3d657854427343f4c083240f7aacaa2d0f62898960405161224d929190614085565b60405180910390a461226483600089858589612491565b61227383600089898989612499565b50505050505050565b806008600084815260200190815260200160002090805190602001906122a39291906128e5565b505050565b6040518060a001604052808481526020013073ffffffffffffffffffffffffffffffffffffffff1681526020013373ffffffffffffffffffffffffffffffffffffffff16815260200183815260200182815250600760008581526020019081526020016000206000820151816000015560208201518160010160006101000a81548173ffffffffffffffffffffffffffffffffffffffff021916908373ffffffffffffffffffffffffffffffffffffffff16021790555060408201518160020160006101000a81548173ffffffffffffffffffffffffffffffffffffffff021916908373ffffffffffffffffffffffffffffffffffffffff16021790555060608201518160030155608082015181600401559050506123c933308584610703565b827ff40ae6a2e1d3d4af7964a158a8687cadbfad8bd38349d9d1914cfec9786460743033848660016040516124029594939291906142aa565b60405180910390a2505050565b60606000600167ffffffffffffffff81111561242e5761242d612bd2565b5b60405190808252806020026020018201604052801561245c5781602001602082028036833780820191505090505b509050828160008151811061247457612473613a63565b5b60200260200101818152505080915050919050565b505050505050565b505050505050565b6124b88473ffffffffffffffffffffffffffffffffffffffff16612867565b15612678578373ffffffffffffffffffffffffffffffffffffffff1663f23a6e6187878686866040518663ffffffff1660e01b81526004016124fe959493929190614352565b602060405180830381600087803b15801561251857600080fd5b505af192505050801561254957506040513d601f19601f8201168201806040525081019061254691906143c1565b60015b6125ef576125556143fb565b806308c379a014156125b2575061256a61441d565b8061257557506125b4565b806040517f08c379a00000000000000000000000000000000000000000000000000000000081526004016125a99190612e69565b60405180910390fd5b505b6040517f08c379a00000000000000000000000000000000000000000000000000000000081526004016125e690614525565b60405180910390fd5b63f23a6e6160e01b7bffffffffffffffffffffffffffffffffffffffffffffffffffffffff1916817bffffffffffffffffffffffffffffffffffffffffffffffffffffffff191614612676576040517f08c379a000000000000000000000000000000000000000000000000000000000815260040161266d906145b7565b60405180910390fd5b505b505050505050565b61269f8473ffffffffffffffffffffffffffffffffffffffff16612867565b1561285f578373ffffffffffffffffffffffffffffffffffffffff1663bc197c8187878686866040518663ffffffff1660e01b81526004016126e59594939291906145d7565b602060405180830381600087803b1580156126ff57600080fd5b505af192505050801561273057506040513d601f19601f8201168201806040525081019061272d91906143c1565b60015b6127d65761273c6143fb565b806308c379a01415612799575061275161441d565b8061275c575061279b565b806040517f08c379a00000000000000000000000000000000000000000000000000000000081526004016127909190612e69565b60405180910390fd5b505b6040517f08c379a00000000000000000000000000000000000000000000000000000000081526004016127cd90614525565b60405180910390fd5b63bc197c8160e01b7bffffffffffffffffffffffffffffffffffffffffffffffffffffffff1916817bffffffffffffffffffffffffffffffffffffffffffffffffffffffff19161461285d576040517f08c379a0000000000000000000000000000000000000000000000000000000008152600401612854906145b7565b60405180910390fd5b505b505050505050565b6000808273ffffffffffffffffffffffffffffffffffffffff163b119050919050565b6040518060a0016040528060008152602001600073ffffffffffffffffffffffffffffffffffffffff168152602001600073ffffffffffffffffffffffffffffffffffffffff16815260200160008152602001600081525090565b8280546128f1906139ac565b90600052602060002090601f016020900481019282612913576000855561295a565b82601f1061292c57805160ff191683800117855561295a565b8280016001018555821561295a579182015b8281111561295957825182559160200191906001019061293e565b5b509050612967919061296b565b5090565b5b8082111561298457600081600090555060010161296c565b5090565b6000604051905090565b600080fd5b600080fd5b600073ffffffffffffffffffffffffffffffffffffffff82169050919050565b60006129c78261299c565b9050919050565b6129d7816129bc565b81146129e257600080fd5b50565b6000813590506129f4816129ce565b92915050565b6000819050919050565b612a0d816129fa565b8114612a1857600080fd5b50565b600081359050612a2a81612a04565b92915050565b60008060408385031215612a4757612a46612992565b5b6000612a55858286016129e5565b9250506020612a6685828601612a1b565b9150509250929050565b612a79816129fa565b82525050565b6000602082019050612a946000830184612a70565b92915050565b60007fffffffff0000000000000000000000000000000000000000000000000000000082169050919050565b612acf81612a9a565b8114612ada57600080fd5b50565b600081359050612aec81612ac6565b92915050565b600060208284031215612b0857612b07612992565b5b6000612b1684828501612add565b91505092915050565b60008115159050919050565b612b3481612b1f565b82525050565b6000602082019050612b4f6000830184612b2b565b92915050565b60008060008060808587031215612b6f57612b6e612992565b5b6000612b7d878288016129e5565b9450506020612b8e878288016129e5565b9350506040612b9f87828801612a1b565b9250506060612bb087828801612a1b565b91505092959194509250565b600080fd5b6000601f19601f8301169050919050565b7f4e487b7100000000000000000000000000000000000000000000000000000000600052604160045260246000fd5b612c0a82612bc1565b810181811067ffffffffffffffff82111715612c2957612c28612bd2565b5b80604052505050565b6000612c3c612988565b9050612c488282612c01565b919050565b600067ffffffffffffffff821115612c6857612c67612bd2565b5b602082029050602081019050919050565b600080fd5b6000612c91612c8c84612c4d565b612c32565b90508083825260208201905060208402830185811115612cb457612cb3612c79565b5b835b81811015612cdd5780612cc98882612a1b565b845260208401935050602081019050612cb6565b5050509392505050565b600082601f830112612cfc57612cfb612bbc565b5b8135612d0c848260208601612c7e565b91505092915050565b60008060008060808587031215612d2f57612d2e612992565b5b6000612d3d878288016129e5565b9450506020612d4e878288016129e5565b935050604085013567ffffffffffffffff811115612d6f57612d6e612997565b5b612d7b87828801612ce7565b925050606085013567ffffffffffffffff811115612d9c57612d9b612997565b5b612da887828801612ce7565b91505092959194509250565b600060208284031215612dca57612dc9612992565b5b6000612dd884828501612a1b565b91505092915050565b600081519050919050565b600082825260208201905092915050565b60005b83811015612e1b578082015181840152602081019050612e00565b83811115612e2a576000848401525b50505050565b6000612e3b82612de1565b612e458185612dec565b9350612e55818560208601612dfd565b612e5e81612bc1565b840191505092915050565b60006020820190508181036000830152612e838184612e30565b905092915050565b600081519050919050565b600082825260208201905092915050565b6000819050602082019050919050565b612ec0816129fa565b82525050565b6000612ed18261299c565b9050919050565b612ee181612ec6565b82525050565b60a082016000820151612efd6000850182612eb7565b506020820151612f106020850182612ed8565b506040820151612f236040850182612ed8565b506060820151612f366060850182612eb7565b506080820151612f496080850182612eb7565b50505050565b6000612f5b8383612ee7565b60a08301905092915050565b6000602082019050919050565b6000612f7f82612e8b565b612f898185612e96565b9350612f9483612ea7565b8060005b83811015612fc5578151612fac8882612f4f565b9750612fb783612f67565b925050600181019050612f98565b5085935050505092915050565b60006020820190508181036000830152612fec8184612f74565b905092915050565b600080fd5b600067ffffffffffffffff82111561301457613013612bd2565b5b61301d82612bc1565b9050602081019050919050565b82818337600083830152505050565b600061304c61304784612ff9565b612c32565b90508281526020810184848401111561306857613067612ff4565b5b61307384828561302a565b509392505050565b600082601f8301126130905761308f612bbc565b5b81356130a0848260208601613039565b91505092915050565b600080600080600060a086880312156130c5576130c4612992565b5b60006130d3888289016129e5565b95505060206130e4888289016129e5565b945050604086013567ffffffffffffffff81111561310557613104612997565b5b61311188828901612ce7565b935050606086013567ffffffffffffffff81111561313257613131612997565b5b61313e88828901612ce7565b925050608086013567ffffffffffffffff81111561315f5761315e612997565b5b61316b8882890161307b565b9150509295509295909350565b6000806040838503121561318f5761318e612992565b5b600061319d85828601612a1b565b92505060206131ae85828601612a1b565b9150509250929050565b600067ffffffffffffffff8211156131d3576131d2612bd2565b5b602082029050602081019050919050565b60006131f76131f2846131b8565b612c32565b9050808382526020820190506020840283018581111561321a57613219612c79565b5b835b81811015613243578061322f88826129e5565b84526020840193505060208101905061321c565b5050509392505050565b600082601f83011261326257613261612bbc565b5b81356132728482602086016131e4565b91505092915050565b6000806040838503121561329257613291612992565b5b600083013567ffffffffffffffff8111156132b0576132af612997565b5b6132bc8582860161324d565b925050602083013567ffffffffffffffff8111156132dd576132dc612997565b5b6132e985828601612ce7565b9150509250929050565b600081519050919050565b600082825260208201905092915050565b6000819050602082019050919050565b600061332b8383612eb7565b60208301905092915050565b6000602082019050919050565b600061334f826132f3565b61335981856132fe565b93506133648361330f565b8060005b8381101561339557815161337c888261331f565b975061338783613337565b925050600181019050613368565b5085935050505092915050565b600060208201905081810360008301526133bc8184613344565b905092915050565b60a0820160008201516133da6000850182612eb7565b5060208201516133ed6020850182612ed8565b5060408201516134006040850182612ed8565b5060608201516134136060850182612eb7565b5060808201516134266080850182612eb7565b50505050565b600060a08201905061344160008301846133c4565b92915050565b61345081612b1f565b811461345b57600080fd5b50565b60008135905061346d81613447565b92915050565b6000806040838503121561348a57613489612992565b5b6000613498858286016129e5565b92505060206134a98582860161345e565b9150509250929050565b600080fd5b60008083601f8401126134ce576134cd612bbc565b5b8235905067ffffffffffffffff8111156134eb576134ea6134b3565b5b60208301915083602082028301111561350757613506612c79565b5b9250929050565b60008083601f84011261352457613523612bbc565b5b8235905067ffffffffffffffff811115613541576135406134b3565b5b60208301915083600182028301111561355d5761355c612c79565b5b9250929050565b60008060008060008060008060a0898b03121561358457613583612992565b5b60006135928b828c016129e5565b98505060206135a38b828c016129e5565b975050604089013567ffffffffffffffff8111156135c4576135c3612997565b5b6135d08b828c016134b8565b9650965050606089013567ffffffffffffffff8111156135f3576135f2612997565b5b6135ff8b828c016134b8565b9450945050608089013567ffffffffffffffff81111561362257613621612997565b5b61362e8b828c0161350e565b92509250509295985092959890939650565b61364981612a9a565b82525050565b60006020820190506136646000830184613640565b92915050565b600067ffffffffffffffff82111561368557613684612bd2565b5b61368e82612bc1565b9050602081019050919050565b60006136ae6136a98461366a565b612c32565b9050828152602081018484840111156136ca576136c9612ff4565b5b6136d584828561302a565b509392505050565b600082601f8301126136f2576136f1612bbc565b5b813561370284826020860161369b565b91505092915050565b60008060006060848603121561372457613723612992565b5b600084013567ffffffffffffffff81111561374257613741612997565b5b61374e868287016136dd565b935050602061375f86828701612a1b565b925050604061377086828701612a1b565b9150509250925092565b6000806040838503121561379157613790612992565b5b600061379f858286016129e5565b92505060206137b0858286016129e5565b9150509250929050565b60008060008060008060a087890312156137d7576137d6612992565b5b60006137e589828a016129e5565b96505060206137f689828a016129e5565b955050604061380789828a01612a1b565b945050606061381889828a01612a1b565b935050608087013567ffffffffffffffff81111561383957613838612997565b5b61384589828a0161350e565b92509250509295509295509295565b600080600080600060a086880312156138705761386f612992565b5b600061387e888289016129e5565b955050602061388f888289016129e5565b94505060406138a088828901612a1b565b93505060606138b188828901612a1b565b925050608086013567ffffffffffffffff8111156138d2576138d1612997565b5b6138de8882890161307b565b9150509295509295909350565b7f455243313135353a2061646472657373207a65726f206973206e6f742061207660008201527f616c6964206f776e657200000000000000000000000000000000000000000000602082015250565b6000613947602a83612dec565b9150613952826138eb565b604082019050919050565b600060208201905081810360008301526139768161393a565b9050919050565b7f4e487b7100000000000000000000000000000000000000000000000000000000600052602260045260246000fd5b600060028204905060018216806139c457607f821691505b602082108114156139d8576139d761397d565b5b50919050565b7f4e487b7100000000000000000000000000000000000000000000000000000000600052601160045260246000fd5b6000613a18826129fa565b9150613a23836129fa565b9250827fffffffffffffffffffffffffffffffffffffffffffffffffffffffffffffffff03821115613a5857613a576139de565b5b828201905092915050565b7f4e487b7100000000000000000000000000000000000000000000000000000000600052603260045260246000fd5b6000613a9d826129fa565b91507fffffffffffffffffffffffffffffffffffffffffffffffffffffffffffffffff821415613ad057613acf6139de565b5b600182019050919050565b7f455243313135353a2063616c6c6572206973206e6f7420746f6b656e206f776e60008201527f6572206f7220617070726f766564000000000000000000000000000000000000602082015250565b6000613b37602e83612dec565b9150613b4282613adb565b604082019050919050565b60006020820190508181036000830152613b6681613b2a565b9050919050565b7f74686520726571756573746564207175616e74697479206f662074686973206960008201527f74656d206973206e6f206c6f6e67657220617661696c61626c65000000000000602082015250565b6000613bc9603a83612dec565b9150613bd482613b6d565b604082019050919050565b60006020820190508181036000830152613bf881613bbc565b9050919050565b6000613c0a826129fa565b9150613c15836129fa565b9250817fffffffffffffffffffffffffffffffffffffffffffffffffffffffffffffffff0483118215151615613c4e57613c4d6139de565b5b828202905092915050565b7f506c65617365207375626d6974207468652061736b696e67207072696365206660008201527f6f722074686520746f6b656e0000000000000000000000000000000000000000602082015250565b6000613cb5602c83612dec565b9150613cc082613c59565b604082019050919050565b60006020820190508181036000830152613ce481613ca8565b9050919050565b6000613cf6826129fa565b9150613d01836129fa565b925082821015613d1457613d136139de565b5b828203905092915050565b7f455243313135353a206163636f756e747320616e6420696473206c656e67746860008201527f206d69736d617463680000000000000000000000000000000000000000000000602082015250565b6000613d7b602983612dec565b9150613d8682613d1f565b604082019050919050565b60006020820190508181036000830152613daa81613d6e565b9050919050565b7f6f6e6c79206f776e65722063616e207570646174652070726963650000000000600082015250565b6000613de7601b83612dec565b9150613df282613db1565b602082019050919050565b60006020820190508181036000830152613e1681613dda565b9050919050565b7f4e6f7420656e6f756768207061696420746f206c697374000000000000000000600082015250565b6000613e53601783612dec565b9150613e5e82613e1d565b602082019050919050565b60006020820190508181036000830152613e8281613e46565b9050919050565b7f7072696365206d75737420626520706f73697469766500000000000000000000600082015250565b6000613ebf601683612dec565b9150613eca82613e89565b602082019050919050565b60006020820190508181036000830152613eee81613eb2565b9050919050565b7f63616e6e6f7420637265617465203020696e7374616e63657300000000000000600082015250565b6000613f2b601983612dec565b9150613f3682613ef5565b602082019050919050565b60006020820190508181036000830152613f5a81613f1e565b9050919050565b7f455243313135353a207472616e7366657220746f20746865207a65726f20616460008201527f6472657373000000000000000000000000000000000000000000000000000000602082015250565b6000613fbd602583612dec565b9150613fc882613f61565b604082019050919050565b60006020820190508181036000830152613fec81613fb0565b9050919050565b7f455243313135353a20696e73756666696369656e742062616c616e636520666f60008201527f72207472616e7366657200000000000000000000000000000000000000000000602082015250565b600061404f602a83612dec565b915061405a82613ff3565b604082019050919050565b6000602082019050818103600083015261407e81614042565b9050919050565b600060408201905061409a6000830185612a70565b6140a76020830184612a70565b9392505050565b7f455243313135353a2069647320616e6420616d6f756e7473206c656e6774682060008201527f6d69736d61746368000000000000000000000000000000000000000000000000602082015250565b600061410a602883612dec565b9150614115826140ae565b604082019050919050565b60006020820190508181036000830152614139816140fd565b9050919050565b6000604082019050818103600083015261415a8185613344565b9050818103602083015261416e8184613344565b90509392505050565b7f455243313135353a2073657474696e6720617070726f76616c2073746174757360008201527f20666f722073656c660000000000000000000000000000000000000000000000602082015250565b60006141d3602983612dec565b91506141de82614177565b604082019050919050565b60006020820190508181036000830152614202816141c6565b9050919050565b7f455243313135353a206d696e7420746f20746865207a65726f2061646472657360008201527f7300000000000000000000000000000000000000000000000000000000000000602082015250565b6000614265602183612dec565b915061427082614209565b604082019050919050565b6000602082019050818103600083015261429481614258565b9050919050565b6142a4816129bc565b82525050565b600060a0820190506142bf600083018861429b565b6142cc602083018761429b565b6142d96040830186612a70565b6142e66060830185612a70565b6142f36080830184612b2b565b9695505050505050565b600081519050919050565b600082825260208201905092915050565b6000614324826142fd565b61432e8185614308565b935061433e818560208601612dfd565b61434781612bc1565b840191505092915050565b600060a082019050614367600083018861429b565b614374602083018761429b565b6143816040830186612a70565b61438e6060830185612a70565b81810360808301526143a08184614319565b90509695505050505050565b6000815190506143bb81612ac6565b92915050565b6000602082840312156143d7576143d6612992565b5b60006143e5848285016143ac565b91505092915050565b60008160e01c9050919050565b600060033d111561441a5760046000803e6144176000516143ee565b90505b90565b600060443d101561442d576144b0565b614435612988565b60043d036004823e80513d602482011167ffffffffffffffff8211171561445d5750506144b0565b808201805167ffffffffffffffff81111561447b57505050506144b0565b80602083010160043d0385018111156144985750505050506144b0565b6144a782602001850186612c01565b82955050505050505b90565b7f455243313135353a207472616e7366657220746f206e6f6e2d4552433131353560008201527f526563656976657220696d706c656d656e746572000000000000000000000000602082015250565b600061450f603483612dec565b915061451a826144b3565b604082019050919050565b6000602082019050818103600083015261453e81614502565b9050919050565b7f455243313135353a204552433131353552656365697665722072656a6563746560008201527f6420746f6b656e73000000000000000000000000000000000000000000000000602082015250565b60006145a1602883612dec565b91506145ac82614545565b604082019050919050565b600060208201905081810360008301526145d081614594565b9050919050565b600060a0820190506145ec600083018861429b565b6145f9602083018761429b565b818103604083015261460b8186613344565b9050818103606083015261461f8185613344565b905081810360808301526146338184614319565b9050969550505050505056fea2646970667358221220d6e672546d8977b46ca126d53dd37082bc1c762c7b13d14c659873f37c11d83f64736f6c63430008090033",
  "linkReferences": {},
  "deployedLinkReferences": {}
}