{
  "_format": "hh-sol-artifact-1",
  "contractName": "Marketplace",
  "sourceName": "contracts/Marketplace.sol",
  "abi": [
    {
      "inputs": [],
      "stateMutability": "nonpayable",
      "type": "constructor"
    },
    {
      "anonymous": false,
      "inputs": [
        {
          "indexed": true,
          "internalType": "address",
          "name": "account",
          "type": "address"
        },
        {
          "indexed": true,
          "internalType": "address",
          "name": "operator",
          "type": "address"
        },
        {
          "indexed": false,
          "internalType": "bool",
          "name": "approved",
          "type": "bool"
        }
      ],
      "name": "ApprovalForAll",
      "type": "event"
    },
    {
      "anonymous": false,
      "inputs": [
        {
          "indexed": true,
          "internalType": "uint256",
          "name": "tokenID",
          "type": "uint256"
        },
        {
          "indexed": false,
          "internalType": "address",
          "name": "owner",
          "type": "address"
        },
        {
          "indexed": false,
          "internalType": "address",
          "name": "seller",
          "type": "address"
        },
        {
          "indexed": false,
          "internalType": "uint256",
          "name": "price",
          "type": "uint256"
        },
        {
          "indexed": false,
          "internalType": "uint256",
          "name": "amount",
          "type": "uint256"
        },
        {
          "indexed": false,
          "internalType": "bool",
          "name": "currentlyListed",
          "type": "bool"
        }
      ],
      "name": "MediaListedSuccess",
      "type": "event"
    },
    {
      "anonymous": false,
      "inputs": [
        {
          "indexed": true,
          "internalType": "address",
          "name": "operator",
          "type": "address"
        },
        {
          "indexed": true,
          "internalType": "address",
          "name": "from",
          "type": "address"
        },
        {
          "indexed": true,
          "internalType": "address",
          "name": "to",
          "type": "address"
        },
        {
          "indexed": false,
          "internalType": "uint256[]",
          "name": "ids",
          "type": "uint256[]"
        },
        {
          "indexed": false,
          "internalType": "uint256[]",
          "name": "values",
          "type": "uint256[]"
        }
      ],
      "name": "TransferBatch",
      "type": "event"
    },
    {
      "anonymous": false,
      "inputs": [
        {
          "indexed": true,
          "internalType": "address",
          "name": "operator",
          "type": "address"
        },
        {
          "indexed": true,
          "internalType": "address",
          "name": "from",
          "type": "address"
        },
        {
          "indexed": true,
          "internalType": "address",
          "name": "to",
          "type": "address"
        },
        {
          "indexed": false,
          "internalType": "uint256",
          "name": "id",
          "type": "uint256"
        },
        {
          "indexed": false,
          "internalType": "uint256",
          "name": "value",
          "type": "uint256"
        }
      ],
      "name": "TransferSingle",
      "type": "event"
    },
    {
      "anonymous": false,
      "inputs": [
        {
          "indexed": false,
          "internalType": "string",
          "name": "value",
          "type": "string"
        },
        {
          "indexed": true,
          "internalType": "uint256",
          "name": "id",
          "type": "uint256"
        }
      ],
      "name": "URI",
      "type": "event"
    },
    {
      "inputs": [
        {
          "internalType": "address",
          "name": "account",
          "type": "address"
        },
        {
          "internalType": "uint256",
          "name": "id",
          "type": "uint256"
        }
      ],
      "name": "balanceOf",
      "outputs": [
        {
          "internalType": "uint256",
          "name": "",
          "type": "uint256"
        }
      ],
      "stateMutability": "view",
      "type": "function"
    },
    {
      "inputs": [
        {
          "internalType": "address[]",
          "name": "accounts",
          "type": "address[]"
        },
        {
          "internalType": "uint256[]",
          "name": "ids",
          "type": "uint256[]"
        }
      ],
      "name": "balanceOfBatch",
      "outputs": [
        {
          "internalType": "uint256[]",
          "name": "",
          "type": "uint256[]"
        }
      ],
      "stateMutability": "view",
      "type": "function"
    },
    {
      "inputs": [
        {
          "internalType": "string",
          "name": "tokenURI",
          "type": "string"
        },
        {
          "internalType": "uint256",
          "name": "price",
          "type": "uint256"
        },
        {
          "internalType": "uint256",
          "name": "amount",
          "type": "uint256"
        }
      ],
      "name": "createMedia",
      "outputs": [
        {
          "internalType": "uint256",
          "name": "",
          "type": "uint256"
        }
      ],
      "stateMutability": "payable",
      "type": "function"
    },
    {
      "inputs": [
        {
          "internalType": "uint256",
          "name": "tokenID",
          "type": "uint256"
        },
        {
          "internalType": "uint256",
          "name": "amount",
          "type": "uint256"
        }
      ],
      "name": "executeSale",
      "outputs": [],
      "stateMutability": "payable",
      "type": "function"
    },
    {
      "inputs": [],
      "name": "getAllTokens",
      "outputs": [
        {
          "components": [
            {
              "internalType": "uint256",
              "name": "tokenID",
              "type": "uint256"
            },
            {
              "internalType": "address payable",
              "name": "owner",
              "type": "address"
            },
            {
              "internalType": "address payable",
              "name": "seller",
              "type": "address"
            },
            {
              "internalType": "uint256",
              "name": "price",
              "type": "uint256"
            },
            {
              "internalType": "uint256",
              "name": "amountListed",
              "type": "uint256"
            },
            {
              "internalType": "bool",
              "name": "currentlyListed",
              "type": "bool"
            }
          ],
          "internalType": "struct Marketplace.Media[]",
          "name": "",
          "type": "tuple[]"
        }
      ],
      "stateMutability": "view",
      "type": "function"
    },
    {
      "inputs": [],
      "name": "getAvailableTokens",
      "outputs": [
        {
          "components": [
            {
              "internalType": "uint256",
              "name": "tokenID",
              "type": "uint256"
            },
            {
              "internalType": "address payable",
              "name": "owner",
              "type": "address"
            },
            {
              "internalType": "address payable",
              "name": "seller",
              "type": "address"
            },
            {
              "internalType": "uint256",
              "name": "price",
              "type": "uint256"
            },
            {
              "internalType": "uint256",
              "name": "amountListed",
              "type": "uint256"
            },
            {
              "internalType": "bool",
              "name": "currentlyListed",
              "type": "bool"
            }
          ],
          "internalType": "struct Marketplace.Media[]",
          "name": "",
          "type": "tuple[]"
        }
      ],
      "stateMutability": "view",
      "type": "function"
    },
    {
      "inputs": [],
      "name": "getCurrentToken",
      "outputs": [
        {
          "internalType": "uint256",
          "name": "",
          "type": "uint256"
        }
      ],
      "stateMutability": "view",
      "type": "function"
    },
    {
      "inputs": [],
      "name": "getLatestIdToMedia",
      "outputs": [
        {
          "components": [
            {
              "internalType": "uint256",
              "name": "tokenID",
              "type": "uint256"
            },
            {
              "internalType": "address payable",
              "name": "owner",
              "type": "address"
            },
            {
              "internalType": "address payable",
              "name": "seller",
              "type": "address"
            },
            {
              "internalType": "uint256",
              "name": "price",
              "type": "uint256"
            },
            {
              "internalType": "uint256",
              "name": "amountListed",
              "type": "uint256"
            },
            {
              "internalType": "bool",
              "name": "currentlyListed",
              "type": "bool"
            }
          ],
          "internalType": "struct Marketplace.Media",
          "name": "",
          "type": "tuple"
        }
      ],
      "stateMutability": "view",
      "type": "function"
    },
    {
      "inputs": [
        {
          "internalType": "uint256",
          "name": "tokenID",
          "type": "uint256"
        }
      ],
      "name": "getListedForTokenID",
      "outputs": [
        {
          "components": [
            {
              "internalType": "uint256",
              "name": "tokenID",
              "type": "uint256"
            },
            {
              "internalType": "address payable",
              "name": "owner",
              "type": "address"
            },
            {
              "internalType": "address payable",
              "name": "seller",
              "type": "address"
            },
            {
              "internalType": "uint256",
              "name": "price",
              "type": "uint256"
            },
            {
              "internalType": "uint256",
              "name": "amountListed",
              "type": "uint256"
            },
            {
              "internalType": "bool",
              "name": "currentlyListed",
              "type": "bool"
            }
          ],
          "internalType": "struct Marketplace.Media",
          "name": "",
          "type": "tuple"
        }
      ],
      "stateMutability": "view",
      "type": "function"
    },
    {
      "inputs": [],
      "name": "getMyTokens",
      "outputs": [
        {
          "components": [
            {
              "internalType": "uint256",
              "name": "tokenID",
              "type": "uint256"
            },
            {
              "internalType": "address payable",
              "name": "owner",
              "type": "address"
            },
            {
              "internalType": "address payable",
              "name": "seller",
              "type": "address"
            },
            {
              "internalType": "uint256",
              "name": "price",
              "type": "uint256"
            },
            {
              "internalType": "uint256",
              "name": "amountListed",
              "type": "uint256"
            },
            {
              "internalType": "bool",
              "name": "currentlyListed",
              "type": "bool"
            }
          ],
          "internalType": "struct Marketplace.Media[]",
          "name": "",
          "type": "tuple[]"
        }
      ],
      "stateMutability": "view",
      "type": "function"
    },
    {
      "inputs": [],
      "name": "getPublishPrice",
      "outputs": [
        {
          "internalType": "uint256",
          "name": "",
          "type": "uint256"
        }
      ],
      "stateMutability": "view",
      "type": "function"
    },
    {
      "inputs": [
        {
          "internalType": "address",
          "name": "account",
          "type": "address"
        },
        {
          "internalType": "address",
          "name": "operator",
          "type": "address"
        }
      ],
      "name": "isApprovedForAll",
      "outputs": [
        {
          "internalType": "bool",
          "name": "",
          "type": "bool"
        }
      ],
      "stateMutability": "view",
      "type": "function"
    },
    {
      "inputs": [
        {
          "internalType": "address",
          "name": "_operator",
          "type": "address"
        },
        {
          "internalType": "address",
          "name": "_from",
          "type": "address"
        },
        {
          "internalType": "uint256[]",
          "name": "_ids",
          "type": "uint256[]"
        },
        {
          "internalType": "uint256[]",
          "name": "_values",
          "type": "uint256[]"
        },
        {
          "internalType": "bytes",
          "name": "_data",
          "type": "bytes"
        }
      ],
      "name": "onERC1155BatchReceived",
      "outputs": [
        {
          "internalType": "bytes4",
          "name": "",
          "type": "bytes4"
        }
      ],
      "stateMutability": "nonpayable",
      "type": "function"
    },
    {
      "inputs": [
        {
          "internalType": "address",
          "name": "operator",
          "type": "address"
        },
        {
          "internalType": "address",
          "name": "from",
          "type": "address"
        },
        {
          "internalType": "uint256",
          "name": "id",
          "type": "uint256"
        },
        {
          "internalType": "uint256",
          "name": "value",
          "type": "uint256"
        },
        {
          "internalType": "bytes",
          "name": "data",
          "type": "bytes"
        }
      ],
      "name": "onERC1155Received",
      "outputs": [
        {
          "internalType": "bytes4",
          "name": "",
          "type": "bytes4"
        }
      ],
      "stateMutability": "pure",
      "type": "function"
    },
    {
      "inputs": [
        {
          "internalType": "address",
          "name": "from",
          "type": "address"
        },
        {
          "internalType": "address",
          "name": "to",
          "type": "address"
        },
        {
          "internalType": "uint256[]",
          "name": "ids",
          "type": "uint256[]"
        },
        {
          "internalType": "uint256[]",
          "name": "amounts",
          "type": "uint256[]"
        },
        {
          "internalType": "bytes",
          "name": "data",
          "type": "bytes"
        }
      ],
      "name": "safeBatchTransferFrom",
      "outputs": [],
      "stateMutability": "nonpayable",
      "type": "function"
    },
    {
      "inputs": [
        {
          "internalType": "address",
          "name": "from",
          "type": "address"
        },
        {
          "internalType": "address",
          "name": "to",
          "type": "address"
        },
        {
          "internalType": "uint256",
          "name": "id",
          "type": "uint256"
        },
        {
          "internalType": "uint256",
          "name": "amount",
          "type": "uint256"
        },
        {
          "internalType": "bytes",
          "name": "data",
          "type": "bytes"
        }
      ],
      "name": "safeTransferFrom",
      "outputs": [],
      "stateMutability": "nonpayable",
      "type": "function"
    },
    {
      "inputs": [
        {
          "internalType": "address",
          "name": "operator",
          "type": "address"
        },
        {
          "internalType": "bool",
          "name": "approved",
          "type": "bool"
        }
      ],
      "name": "setApprovalForAll",
      "outputs": [],
      "stateMutability": "nonpayable",
      "type": "function"
    },
    {
      "inputs": [
        {
          "internalType": "bytes4",
          "name": "interfaceId",
          "type": "bytes4"
        }
      ],
      "name": "supportsInterface",
      "outputs": [
        {
          "internalType": "bool",
          "name": "",
          "type": "bool"
        }
      ],
      "stateMutability": "view",
      "type": "function"
    },
    {
      "inputs": [
        {
          "internalType": "address",
          "name": "from",
          "type": "address"
        },
        {
          "internalType": "address",
          "name": "to",
          "type": "address"
        },
        {
          "internalType": "uint256",
          "name": "tokenID",
          "type": "uint256"
        },
        {
          "internalType": "uint256",
          "name": "amount",
          "type": "uint256"
        }
      ],
      "name": "transfer",
      "outputs": [],
      "stateMutability": "nonpayable",
      "type": "function"
    },
    {
      "inputs": [
        {
          "internalType": "address",
          "name": "from",
          "type": "address"
        },
        {
          "internalType": "address",
          "name": "to",
          "type": "address"
        },
        {
          "internalType": "uint256[]",
          "name": "tokenIDs",
          "type": "uint256[]"
        },
        {
          "internalType": "uint256[]",
          "name": "amounts",
          "type": "uint256[]"
        }
      ],
      "name": "transferBatch",
      "outputs": [],
      "stateMutability": "nonpayable",
      "type": "function"
    },
    {
      "inputs": [
        {
          "internalType": "uint256",
          "name": "_publishPrice",
          "type": "uint256"
        }
      ],
      "name": "updateListedPrice",
      "outputs": [],
      "stateMutability": "payable",
      "type": "function"
    },
    {
      "inputs": [
        {
          "internalType": "uint256",
          "name": "tokenID",
          "type": "uint256"
        }
      ],
      "name": "uri",
      "outputs": [
        {
          "internalType": "string",
          "name": "",
          "type": "string"
        }
      ],
      "stateMutability": "view",
      "type": "function"
    }
  ],
  "bytecode": "0x608060405260016006553480156200001657600080fd5b506040518060400160405280600681526020017f556e7573656400000000000000000000000000000000000000000000000000008152506200005e81620000b660201b60201c565b5033600560006101000a81548173ffffffffffffffffffffffffffffffffffffffff021916908373ffffffffffffffffffffffffffffffffffffffff16021790555060006003819055506000600481905550620001e7565b8060029080519060200190620000ce929190620000d2565b5050565b828054620000e090620001b1565b90600052602060002090601f01602090048101928262000104576000855562000150565b82601f106200011f57805160ff191683800117855562000150565b8280016001018555821562000150579182015b828111156200014f57825182559160200191906001019062000132565b5b5090506200015f919062000163565b5090565b5b808211156200017e57600081600090555060010162000164565b5090565b7f4e487b7100000000000000000000000000000000000000000000000000000000600052602260045260246000fd5b60006002820490506001821680620001ca57607f821691505b60208210811415620001e157620001e062000182565b5b50919050565b61479180620001f76000396000f3fe6080604052600436106101345760003560e01c80639e52ce14116100ab578063e35568cb1161006f578063e35568cb14610422578063e985e9c51461044d578063ea2c03bb1461048a578063ef2d1746146104c7578063f23a6e61146104f2578063f242432a1461052f57610134565b80639e52ce1414610345578063a22cb46514610361578063bc197c811461038a578063c5bcf99b146103c7578063ce3c64b2146103f257610134565b806310232575116100fd57806310232575146102425780632a5c792a1461026d5780632eb2c2d6146102985780634437b60b146102c15780634e1273f4146102dd5780635b3b136a1461031a57610134565b8062fdd58e1461013957806301ffc9a7146101765780630411b252146101b35780630731a369146101dc5780630e89341c14610205575b600080fd5b34801561014557600080fd5b50610160600480360381019061015b9190612b17565b610558565b60405161016d9190612b66565b60405180910390f35b34801561018257600080fd5b5061019d60048036038101906101989190612bd9565b610621565b6040516101aa9190612c21565b60405180910390f35b3480156101bf57600080fd5b506101da60048036038101906101d59190612c3c565b610703565b005b3480156101e857600080fd5b5061020360048036038101906101fe9190612dfc565b610725565b005b34801561021157600080fd5b5061022c60048036038101906102279190612e9b565b610747565b6040516102399190612f50565b60405180910390f35b34801561024e57600080fd5b506102576107ec565b6040516102649190612b66565b60405180910390f35b34801561027957600080fd5b506102826107f6565b60405161028f91906130db565b60405180910390f35b3480156102a457600080fd5b506102bf60048036038101906102ba91906131b2565b6109c8565b005b6102db60048036038101906102d69190613281565b610a69565b005b3480156102e957600080fd5b5061030460048036038101906102ff9190613384565b610d2b565b60405161031191906134ab565b60405180910390f35b34801561032657600080fd5b5061032f610e44565b60405161033c91906130db565b60405180910390f35b61035f600480360381019061035a9190612e9b565b611225565b005b34801561036d57600080fd5b50610388600480360381019061038391906134f9565b6112bf565b005b34801561039657600080fd5b506103b160048036038101906103ac91906135ea565b6112d5565b6040516103be91906136d5565b60405180910390f35b3480156103d357600080fd5b506103dc6112e3565b6040516103e9919061376b565b60405180910390f35b61040c60048036038101906104079190613827565b6113fb565b6040516104199190612b66565b60405180910390f35b34801561042e57600080fd5b50610437611521565b60405161044491906130db565b60405180910390f35b34801561045957600080fd5b50610474600480360381019061046f9190613896565b61177c565b6040516104819190612c21565b60405180910390f35b34801561049657600080fd5b506104b160048036038101906104ac9190612e9b565b611810565b6040516104be919061376b565b60405180910390f35b3480156104d357600080fd5b506104dc611922565b6040516104e99190612b66565b60405180910390f35b3480156104fe57600080fd5b50610519600480360381019061051491906138d6565b61192c565b60405161052691906136d5565b60405180910390f35b34801561053b57600080fd5b5061055660048036038101906105519190613970565b611942565b005b60008073ffffffffffffffffffffffffffffffffffffffff168373ffffffffffffffffffffffffffffffffffffffff1614156105c9576040517f08c379a00000000000000000000000000000000000000000000000000000000081526004016105c090613a79565b60405180910390fd5b60008083815260200190815260200160002060008473ffffffffffffffffffffffffffffffffffffffff1673ffffffffffffffffffffffffffffffffffffffff16815260200190815260200160002054905092915050565b60007fd9b67a26000000000000000000000000000000000000000000000000000000007bffffffffffffffffffffffffffffffffffffffffffffffffffffffff1916827bffffffffffffffffffffffffffffffffffffffffffffffffffffffff191614806106ec57507f0e89341c000000000000000000000000000000000000000000000000000000007bffffffffffffffffffffffffffffffffffffffffffffffffffffffff1916827bffffffffffffffffffffffffffffffffffffffffffffffffffffffff1916145b806106fc57506106fb826119e3565b5b9050919050565b61071f8484848460405180602001604052806000815250611a4d565b50505050565b6107418484848460405180602001604052806000815250611ce9565b50505050565b606060086000838152602001908152602001600020805461076790613ac8565b80601f016020809104026020016040519081016040528092919081815260200182805461079390613ac8565b80156107e05780601f106107b5576101008083540402835291602001916107e0565b820191906000526020600020905b8154815290600101906020018083116107c357829003601f168201915b50505050509050919050565b6000600654905090565b60606000600354905060008167ffffffffffffffff81111561081b5761081a612cb9565b5b60405190808252806020026020018201604052801561085457816020015b610841612968565b8152602001906001900390816108395790505b5090506000805b838110156109be5760006001826108729190613b29565b90506000600760008381526020019081526020016000209050806040518060c0016040529081600082015481526020016001820160009054906101000a900473ffffffffffffffffffffffffffffffffffffffff1673ffffffffffffffffffffffffffffffffffffffff1673ffffffffffffffffffffffffffffffffffffffff1681526020016002820160009054906101000a900473ffffffffffffffffffffffffffffffffffffffff1673ffffffffffffffffffffffffffffffffffffffff1673ffffffffffffffffffffffffffffffffffffffff16815260200160038201548152602001600482015481526020016005820160009054906101000a900460ff16151515158152505085858151811061098f5761098e613b7f565b5b60200260200101819052506001846109a79190613b29565b9350505080806109b690613bae565b91505061085b565b5081935050505090565b6109d061200b565b73ffffffffffffffffffffffffffffffffffffffff168573ffffffffffffffffffffffffffffffffffffffff161480610a165750610a1585610a1061200b565b61177c565b5b610a55576040517f08c379a0000000000000000000000000000000000000000000000000000000008152600401610a4c90613c69565b60405180910390fd5b610a628585858585611ce9565b5050505050565b60006007600084815260200190815260200160002060030154905060006007600085815260200190815260200160002060020160009054906101000a900473ffffffffffffffffffffffffffffffffffffffff1690508260076000868152602001908152602001600020600401541015610b18576040517f08c379a0000000000000000000000000000000000000000000000000000000008152600401610b0f90613cfb565b60405180910390fd5b8282610b249190613d1b565b3414610b65576040517f08c379a0000000000000000000000000000000000000000000000000000000008152600401610b5c90613de7565b60405180910390fd5b826007600086815260200190815260200160002060040154610b879190613e07565b6007600086815260200190815260200160002060040181905550336007600086815260200190815260200160002060020160006101000a81548173ffffffffffffffffffffffffffffffffffffffff021916908373ffffffffffffffffffffffffffffffffffffffff16021790555060005b83811015610c2c5760046000815480929190610c1490613bae565b91905055508080610c2490613bae565b915050610bf9565b50610c3930338686610703565b610c448160016112bf565b600560009054906101000a900473ffffffffffffffffffffffffffffffffffffffff1673ffffffffffffffffffffffffffffffffffffffff166108fc6006549081150290604051600060405180830381858888f19350505050158015610cae573d6000803e3d6000fd5b508073ffffffffffffffffffffffffffffffffffffffff166108fc349081150290604051600060405180830381858888f19350505050158015610cf5573d6000803e3d6000fd5b5060006007600086815260200190815260200160002060050160006101000a81548160ff02191690831515021790555050505050565b60608151835114610d71576040517f08c379a0000000000000000000000000000000000000000000000000000000008152600401610d6890613ead565b60405180910390fd5b6000835167ffffffffffffffff811115610d8e57610d8d612cb9565b5b604051908082528060200260200182016040528015610dbc5781602001602082028036833780820191505090505b50905060005b8451811015610e3957610e09858281518110610de157610de0613b7f565b5b6020026020010151858381518110610dfc57610dfb613b7f565b5b6020026020010151610558565b828281518110610e1c57610e1b613b7f565b5b60200260200101818152505080610e3290613bae565b9050610dc2565b508091505092915050565b60606000600354905060008060005b83811015610f6c573373ffffffffffffffffffffffffffffffffffffffff1660076000600184610e839190613b29565b815260200190815260200160002060010160009054906101000a900473ffffffffffffffffffffffffffffffffffffffff1673ffffffffffffffffffffffffffffffffffffffff161480610f4457503373ffffffffffffffffffffffffffffffffffffffff1660076000600184610efa9190613b29565b815260200190815260200160002060020160009054906101000a900473ffffffffffffffffffffffffffffffffffffffff1673ffffffffffffffffffffffffffffffffffffffff16145b15610f5957600183610f569190613b29565b92505b8080610f6490613bae565b915050610e53565b5060008267ffffffffffffffff811115610f8957610f88612cb9565b5b604051908082528060200260200182016040528015610fc257816020015b610faf612968565b815260200190600190039081610fa75790505b50905060005b8481101561121a573373ffffffffffffffffffffffffffffffffffffffff1660076000600184610ff89190613b29565b815260200190815260200160002060010160009054906101000a900473ffffffffffffffffffffffffffffffffffffffff1673ffffffffffffffffffffffffffffffffffffffff1614806110b957503373ffffffffffffffffffffffffffffffffffffffff166007600060018461106f9190613b29565b815260200190815260200160002060020160009054906101000a900473ffffffffffffffffffffffffffffffffffffffff1673ffffffffffffffffffffffffffffffffffffffff16145b156112075760006001826110cd9190613b29565b90506000600760008381526020019081526020016000209050806040518060c0016040529081600082015481526020016001820160009054906101000a900473ffffffffffffffffffffffffffffffffffffffff1673ffffffffffffffffffffffffffffffffffffffff1673ffffffffffffffffffffffffffffffffffffffff1681526020016002820160009054906101000a900473ffffffffffffffffffffffffffffffffffffffff1673ffffffffffffffffffffffffffffffffffffffff1673ffffffffffffffffffffffffffffffffffffffff16815260200160038201548152602001600482015481526020016005820160009054906101000a900460ff1615151515815250508486815181106111ea576111e9613b7f565b5b60200260200101819052506001856112029190613b29565b945050505b808061121290613bae565b915050610fc8565b508094505050505090565b3373ffffffffffffffffffffffffffffffffffffffff16600560009054906101000a900473ffffffffffffffffffffffffffffffffffffffff1673ffffffffffffffffffffffffffffffffffffffff16146112b5576040517f08c379a00000000000000000000000000000000000000000000000000000000081526004016112ac90613f19565b60405180910390fd5b8060068190555050565b6112d16112ca61200b565b8383612013565b5050565b600098975050505050505050565b6112eb612968565b60006003549050600760008281526020019081526020016000206040518060c0016040529081600082015481526020016001820160009054906101000a900473ffffffffffffffffffffffffffffffffffffffff1673ffffffffffffffffffffffffffffffffffffffff1673ffffffffffffffffffffffffffffffffffffffff1681526020016002820160009054906101000a900473ffffffffffffffffffffffffffffffffffffffff1673ffffffffffffffffffffffffffffffffffffffff1673ffffffffffffffffffffffffffffffffffffffff16815260200160038201548152602001600482015481526020016005820160009054906101000a900460ff16151515158152505091505090565b60006006543414611441576040517f08c379a000000000000000000000000000000000000000000000000000000000815260040161143890613f85565b60405180910390fd5b60008311611484576040517f08c379a000000000000000000000000000000000000000000000000000000000815260040161147b90613ff1565b60405180910390fd5b600082116114c7576040517f08c379a00000000000000000000000000000000000000000000000000000000081526004016114be9061405d565b60405180910390fd5b600360008154809291906114da90613bae565b91905055506000600354905061150133828560405180602001604052806000815250612180565b61150b8186612331565b61151681858561235d565b809150509392505050565b60606000600354905060008060005b838110156115865760006007600060018461154b9190613b29565b8152602001908152602001600020600401541115611573576001836115709190613b29565b92505b808061157e90613bae565b915050611530565b5060008267ffffffffffffffff8111156115a3576115a2612cb9565b5b6040519080825280602002602001820160405280156115dc57816020015b6115c9612968565b8152602001906001900390816115c15790505b50905060005b84811015611771576000600760006001846115fd9190613b29565b815260200190815260200160002060040154111561175e5760006001826116249190613b29565b90506000600760008381526020019081526020016000209050806040518060c0016040529081600082015481526020016001820160009054906101000a900473ffffffffffffffffffffffffffffffffffffffff1673ffffffffffffffffffffffffffffffffffffffff1673ffffffffffffffffffffffffffffffffffffffff1681526020016002820160009054906101000a900473ffffffffffffffffffffffffffffffffffffffff1673ffffffffffffffffffffffffffffffffffffffff1673ffffffffffffffffffffffffffffffffffffffff16815260200160038201548152602001600482015481526020016005820160009054906101000a900460ff16151515158152505084868151811061174157611740613b7f565b5b60200260200101819052506001856117599190613b29565b945050505b808061176990613bae565b9150506115e2565b508094505050505090565b6000600160008473ffffffffffffffffffffffffffffffffffffffff1673ffffffffffffffffffffffffffffffffffffffff16815260200190815260200160002060008373ffffffffffffffffffffffffffffffffffffffff1673ffffffffffffffffffffffffffffffffffffffff16815260200190815260200160002060009054906101000a900460ff16905092915050565b611818612968565b600760008381526020019081526020016000206040518060c0016040529081600082015481526020016001820160009054906101000a900473ffffffffffffffffffffffffffffffffffffffff1673ffffffffffffffffffffffffffffffffffffffff1673ffffffffffffffffffffffffffffffffffffffff1681526020016002820160009054906101000a900473ffffffffffffffffffffffffffffffffffffffff1673ffffffffffffffffffffffffffffffffffffffff1673ffffffffffffffffffffffffffffffffffffffff16815260200160038201548152602001600482015481526020016005820160009054906101000a900460ff1615151515815250509050919050565b6000600354905090565b600063f23a6e6160e01b90509695505050505050565b61194a61200b565b73ffffffffffffffffffffffffffffffffffffffff168573ffffffffffffffffffffffffffffffffffffffff161480611990575061198f8561198a61200b565b61177c565b5b6119cf576040517f08c379a00000000000000000000000000000000000000000000000000000000081526004016119c690613c69565b60405180910390fd5b6119dc8585858585611a4d565b5050505050565b60007f01ffc9a7000000000000000000000000000000000000000000000000000000007bffffffffffffffffffffffffffffffffffffffffffffffffffffffff1916827bffffffffffffffffffffffffffffffffffffffffffffffffffffffff1916149050919050565b600073ffffffffffffffffffffffffffffffffffffffff168473ffffffffffffffffffffffffffffffffffffffff161415611abd576040517f08c379a0000000000000000000000000000000000000000000000000000000008152600401611ab4906140ef565b60405180910390fd5b6000611ac761200b565b90506000611ad4856124ed565b90506000611ae1856124ed565b9050611af1838989858589612567565b600080600088815260200190815260200160002060008a73ffffffffffffffffffffffffffffffffffffffff1673ffffffffffffffffffffffffffffffffffffffff16815260200190815260200160002054905085811015611b88576040517f08c379a0000000000000000000000000000000000000000000000000000000008152600401611b7f90614181565b60405180910390fd5b85810360008089815260200190815260200160002060008b73ffffffffffffffffffffffffffffffffffffffff1673ffffffffffffffffffffffffffffffffffffffff168152602001908152602001600020819055508560008089815260200190815260200160002060008a73ffffffffffffffffffffffffffffffffffffffff1673ffffffffffffffffffffffffffffffffffffffff1681526020019081526020016000206000828254611c3d9190613b29565b925050819055508773ffffffffffffffffffffffffffffffffffffffff168973ffffffffffffffffffffffffffffffffffffffff168573ffffffffffffffffffffffffffffffffffffffff167fc3d58168c5ae7397731d063d5bbf3d657854427343f4c083240f7aacaa2d0f628a8a604051611cba9291906141a1565b60405180910390a4611cd0848a8a86868a61256f565b611cde848a8a8a8a8a612577565b505050505050505050565b8151835114611d2d576040517f08c379a0000000000000000000000000000000000000000000000000000000008152600401611d249061423c565b60405180910390fd5b600073ffffffffffffffffffffffffffffffffffffffff168473ffffffffffffffffffffffffffffffffffffffff161415611d9d576040517f08c379a0000000000000000000000000000000000000000000000000000000008152600401611d94906140ef565b60405180910390fd5b6000611da761200b565b9050611db7818787878787612567565b60005b8451811015611f68576000858281518110611dd857611dd7613b7f565b5b602002602001015190506000858381518110611df757611df6613b7f565b5b60200260200101519050600080600084815260200190815260200160002060008b73ffffffffffffffffffffffffffffffffffffffff1673ffffffffffffffffffffffffffffffffffffffff16815260200190815260200160002054905081811015611e98576040517f08c379a0000000000000000000000000000000000000000000000000000000008152600401611e8f90614181565b60405180910390fd5b81810360008085815260200190815260200160002060008c73ffffffffffffffffffffffffffffffffffffffff1673ffffffffffffffffffffffffffffffffffffffff168152602001908152602001600020819055508160008085815260200190815260200160002060008b73ffffffffffffffffffffffffffffffffffffffff1673ffffffffffffffffffffffffffffffffffffffff1681526020019081526020016000206000828254611f4d9190613b29565b9250508190555050505080611f6190613bae565b9050611dba565b508473ffffffffffffffffffffffffffffffffffffffff168673ffffffffffffffffffffffffffffffffffffffff168273ffffffffffffffffffffffffffffffffffffffff167f4a39dc06d4c0dbc64b70af90fd698a233a518aa5d07e595d983b8c0526c8f7fb8787604051611fdf92919061425c565b60405180910390a4611ff581878787878761256f565b61200381878787878761275e565b505050505050565b600033905090565b8173ffffffffffffffffffffffffffffffffffffffff168373ffffffffffffffffffffffffffffffffffffffff161415612082576040517f08c379a000000000000000000000000000000000000000000000000000000000815260040161207990614305565b60405180910390fd5b80600160008573ffffffffffffffffffffffffffffffffffffffff1673ffffffffffffffffffffffffffffffffffffffff16815260200190815260200160002060008473ffffffffffffffffffffffffffffffffffffffff1673ffffffffffffffffffffffffffffffffffffffff16815260200190815260200160002060006101000a81548160ff0219169083151502179055508173ffffffffffffffffffffffffffffffffffffffff168373ffffffffffffffffffffffffffffffffffffffff167f17307eab39ab6107e8899845ad3d59bd9653f200f220920489ca2b5937696c31836040516121739190612c21565b60405180910390a3505050565b600073ffffffffffffffffffffffffffffffffffffffff168473ffffffffffffffffffffffffffffffffffffffff1614156121f0576040517f08c379a00000000000000000000000000000000000000000000000000000000081526004016121e790614397565b60405180910390fd5b60006121fa61200b565b90506000612207856124ed565b90506000612214856124ed565b905061222583600089858589612567565b8460008088815260200190815260200160002060008973ffffffffffffffffffffffffffffffffffffffff1673ffffffffffffffffffffffffffffffffffffffff16815260200190815260200160002060008282546122849190613b29565b925050819055508673ffffffffffffffffffffffffffffffffffffffff16600073ffffffffffffffffffffffffffffffffffffffff168473ffffffffffffffffffffffffffffffffffffffff167fc3d58168c5ae7397731d063d5bbf3d657854427343f4c083240f7aacaa2d0f6289896040516123029291906141a1565b60405180910390a46123198360008985858961256f565b61232883600089898989612577565b50505050505050565b806008600084815260200190815260200160002090805190602001906123589291906129cc565b505050565b6040518060c001604052808481526020013073ffffffffffffffffffffffffffffffffffffffff1681526020013373ffffffffffffffffffffffffffffffffffffffff16815260200183815260200182815260200160011515815250600760008581526020019081526020016000206000820151816000015560208201518160010160006101000a81548173ffffffffffffffffffffffffffffffffffffffff021916908373ffffffffffffffffffffffffffffffffffffffff16021790555060408201518160020160006101000a81548173ffffffffffffffffffffffffffffffffffffffff021916908373ffffffffffffffffffffffffffffffffffffffff160217905550606082015181600301556080820151816004015560a08201518160050160006101000a81548160ff0219169083151502179055509050506124a733308584610703565b827ff40ae6a2e1d3d4af7964a158a8687cadbfad8bd38349d9d1914cfec9786460743033848660016040516124e09594939291906143c6565b60405180910390a2505050565b60606000600167ffffffffffffffff81111561250c5761250b612cb9565b5b60405190808252806020026020018201604052801561253a5781602001602082028036833780820191505090505b509050828160008151811061255257612551613b7f565b5b60200260200101818152505080915050919050565b505050505050565b505050505050565b6125968473ffffffffffffffffffffffffffffffffffffffff16612945565b15612756578373ffffffffffffffffffffffffffffffffffffffff1663f23a6e6187878686866040518663ffffffff1660e01b81526004016125dc95949392919061446e565b602060405180830381600087803b1580156125f657600080fd5b505af192505050801561262757506040513d601f19601f8201168201806040525081019061262491906144dd565b60015b6126cd57612633614517565b806308c379a014156126905750612648614539565b806126535750612692565b806040517f08c379a00000000000000000000000000000000000000000000000000000000081526004016126879190612f50565b60405180910390fd5b505b6040517f08c379a00000000000000000000000000000000000000000000000000000000081526004016126c490614641565b60405180910390fd5b63f23a6e6160e01b7bffffffffffffffffffffffffffffffffffffffffffffffffffffffff1916817bffffffffffffffffffffffffffffffffffffffffffffffffffffffff191614612754576040517f08c379a000000000000000000000000000000000000000000000000000000000815260040161274b906146d3565b60405180910390fd5b505b505050505050565b61277d8473ffffffffffffffffffffffffffffffffffffffff16612945565b1561293d578373ffffffffffffffffffffffffffffffffffffffff1663bc197c8187878686866040518663ffffffff1660e01b81526004016127c39594939291906146f3565b602060405180830381600087803b1580156127dd57600080fd5b505af192505050801561280e57506040513d601f19601f8201168201806040525081019061280b91906144dd565b60015b6128b45761281a614517565b806308c379a01415612877575061282f614539565b8061283a5750612879565b806040517f08c379a000000000000000000000000000000000000000000000000000000000815260040161286e9190612f50565b60405180910390fd5b505b6040517f08c379a00000000000000000000000000000000000000000000000000000000081526004016128ab90614641565b60405180910390fd5b63bc197c8160e01b7bffffffffffffffffffffffffffffffffffffffffffffffffffffffff1916817bffffffffffffffffffffffffffffffffffffffffffffffffffffffff19161461293b576040517f08c379a0000000000000000000000000000000000000000000000000000000008152600401612932906146d3565b60405180910390fd5b505b505050505050565b6000808273ffffffffffffffffffffffffffffffffffffffff163b119050919050565b6040518060c0016040528060008152602001600073ffffffffffffffffffffffffffffffffffffffff168152602001600073ffffffffffffffffffffffffffffffffffffffff16815260200160008152602001600081526020016000151581525090565b8280546129d890613ac8565b90600052602060002090601f0160209004810192826129fa5760008555612a41565b82601f10612a1357805160ff1916838001178555612a41565b82800160010185558215612a41579182015b82811115612a40578251825591602001919060010190612a25565b5b509050612a4e9190612a52565b5090565b5b80821115612a6b576000816000905550600101612a53565b5090565b6000604051905090565b600080fd5b600080fd5b600073ffffffffffffffffffffffffffffffffffffffff82169050919050565b6000612aae82612a83565b9050919050565b612abe81612aa3565b8114612ac957600080fd5b50565b600081359050612adb81612ab5565b92915050565b6000819050919050565b612af481612ae1565b8114612aff57600080fd5b50565b600081359050612b1181612aeb565b92915050565b60008060408385031215612b2e57612b2d612a79565b5b6000612b3c85828601612acc565b9250506020612b4d85828601612b02565b9150509250929050565b612b6081612ae1565b82525050565b6000602082019050612b7b6000830184612b57565b92915050565b60007fffffffff0000000000000000000000000000000000000000000000000000000082169050919050565b612bb681612b81565b8114612bc157600080fd5b50565b600081359050612bd381612bad565b92915050565b600060208284031215612bef57612bee612a79565b5b6000612bfd84828501612bc4565b91505092915050565b60008115159050919050565b612c1b81612c06565b82525050565b6000602082019050612c366000830184612c12565b92915050565b60008060008060808587031215612c5657612c55612a79565b5b6000612c6487828801612acc565b9450506020612c7587828801612acc565b9350506040612c8687828801612b02565b9250506060612c9787828801612b02565b91505092959194509250565b600080fd5b6000601f19601f8301169050919050565b7f4e487b7100000000000000000000000000000000000000000000000000000000600052604160045260246000fd5b612cf182612ca8565b810181811067ffffffffffffffff82111715612d1057612d0f612cb9565b5b80604052505050565b6000612d23612a6f565b9050612d2f8282612ce8565b919050565b600067ffffffffffffffff821115612d4f57612d4e612cb9565b5b602082029050602081019050919050565b600080fd5b6000612d78612d7384612d34565b612d19565b90508083825260208201905060208402830185811115612d9b57612d9a612d60565b5b835b81811015612dc45780612db08882612b02565b845260208401935050602081019050612d9d565b5050509392505050565b600082601f830112612de357612de2612ca3565b5b8135612df3848260208601612d65565b91505092915050565b60008060008060808587031215612e1657612e15612a79565b5b6000612e2487828801612acc565b9450506020612e3587828801612acc565b935050604085013567ffffffffffffffff811115612e5657612e55612a7e565b5b612e6287828801612dce565b925050606085013567ffffffffffffffff811115612e8357612e82612a7e565b5b612e8f87828801612dce565b91505092959194509250565b600060208284031215612eb157612eb0612a79565b5b6000612ebf84828501612b02565b91505092915050565b600081519050919050565b600082825260208201905092915050565b60005b83811015612f02578082015181840152602081019050612ee7565b83811115612f11576000848401525b50505050565b6000612f2282612ec8565b612f2c8185612ed3565b9350612f3c818560208601612ee4565b612f4581612ca8565b840191505092915050565b60006020820190508181036000830152612f6a8184612f17565b905092915050565b600081519050919050565b600082825260208201905092915050565b6000819050602082019050919050565b612fa781612ae1565b82525050565b6000612fb882612a83565b9050919050565b612fc881612fad565b82525050565b612fd781612c06565b82525050565b60c082016000820151612ff36000850182612f9e565b5060208201516130066020850182612fbf565b5060408201516130196040850182612fbf565b50606082015161302c6060850182612f9e565b50608082015161303f6080850182612f9e565b5060a082015161305260a0850182612fce565b50505050565b60006130648383612fdd565b60c08301905092915050565b6000602082019050919050565b600061308882612f72565b6130928185612f7d565b935061309d83612f8e565b8060005b838110156130ce5781516130b58882613058565b97506130c083613070565b9250506001810190506130a1565b5085935050505092915050565b600060208201905081810360008301526130f5818461307d565b905092915050565b600080fd5b600067ffffffffffffffff82111561311d5761311c612cb9565b5b61312682612ca8565b9050602081019050919050565b82818337600083830152505050565b600061315561315084613102565b612d19565b905082815260208101848484011115613171576131706130fd565b5b61317c848285613133565b509392505050565b600082601f83011261319957613198612ca3565b5b81356131a9848260208601613142565b91505092915050565b600080600080600060a086880312156131ce576131cd612a79565b5b60006131dc88828901612acc565b95505060206131ed88828901612acc565b945050604086013567ffffffffffffffff81111561320e5761320d612a7e565b5b61321a88828901612dce565b935050606086013567ffffffffffffffff81111561323b5761323a612a7e565b5b61324788828901612dce565b925050608086013567ffffffffffffffff81111561326857613267612a7e565b5b61327488828901613184565b9150509295509295909350565b6000806040838503121561329857613297612a79565b5b60006132a685828601612b02565b92505060206132b785828601612b02565b9150509250929050565b600067ffffffffffffffff8211156132dc576132db612cb9565b5b602082029050602081019050919050565b60006133006132fb846132c1565b612d19565b9050808382526020820190506020840283018581111561332357613322612d60565b5b835b8181101561334c57806133388882612acc565b845260208401935050602081019050613325565b5050509392505050565b600082601f83011261336b5761336a612ca3565b5b813561337b8482602086016132ed565b91505092915050565b6000806040838503121561339b5761339a612a79565b5b600083013567ffffffffffffffff8111156133b9576133b8612a7e565b5b6133c585828601613356565b925050602083013567ffffffffffffffff8111156133e6576133e5612a7e565b5b6133f285828601612dce565b9150509250929050565b600081519050919050565b600082825260208201905092915050565b6000819050602082019050919050565b60006134348383612f9e565b60208301905092915050565b6000602082019050919050565b6000613458826133fc565b6134628185613407565b935061346d83613418565b8060005b8381101561349e5781516134858882613428565b975061349083613440565b925050600181019050613471565b5085935050505092915050565b600060208201905081810360008301526134c5818461344d565b905092915050565b6134d681612c06565b81146134e157600080fd5b50565b6000813590506134f3816134cd565b92915050565b600080604083850312156135105761350f612a79565b5b600061351e85828601612acc565b925050602061352f858286016134e4565b9150509250929050565b600080fd5b60008083601f84011261355457613553612ca3565b5b8235905067ffffffffffffffff81111561357157613570613539565b5b60208301915083602082028301111561358d5761358c612d60565b5b9250929050565b60008083601f8401126135aa576135a9612ca3565b5b8235905067ffffffffffffffff8111156135c7576135c6613539565b5b6020830191508360018202830111156135e3576135e2612d60565b5b9250929050565b60008060008060008060008060a0898b03121561360a57613609612a79565b5b60006136188b828c01612acc565b98505060206136298b828c01612acc565b975050604089013567ffffffffffffffff81111561364a57613649612a7e565b5b6136568b828c0161353e565b9650965050606089013567ffffffffffffffff81111561367957613678612a7e565b5b6136858b828c0161353e565b9450945050608089013567ffffffffffffffff8111156136a8576136a7612a7e565b5b6136b48b828c01613594565b92509250509295985092959890939650565b6136cf81612b81565b82525050565b60006020820190506136ea60008301846136c6565b92915050565b60c0820160008201516137066000850182612f9e565b5060208201516137196020850182612fbf565b50604082015161372c6040850182612fbf565b50606082015161373f6060850182612f9e565b5060808201516137526080850182612f9e565b5060a082015161376560a0850182612fce565b50505050565b600060c08201905061378060008301846136f0565b92915050565b600067ffffffffffffffff8211156137a1576137a0612cb9565b5b6137aa82612ca8565b9050602081019050919050565b60006137ca6137c584613786565b612d19565b9050828152602081018484840111156137e6576137e56130fd565b5b6137f1848285613133565b509392505050565b600082601f83011261380e5761380d612ca3565b5b813561381e8482602086016137b7565b91505092915050565b6000806000606084860312156138405761383f612a79565b5b600084013567ffffffffffffffff81111561385e5761385d612a7e565b5b61386a868287016137f9565b935050602061387b86828701612b02565b925050604061388c86828701612b02565b9150509250925092565b600080604083850312156138ad576138ac612a79565b5b60006138bb85828601612acc565b92505060206138cc85828601612acc565b9150509250929050565b60008060008060008060a087890312156138f3576138f2612a79565b5b600061390189828a01612acc565b965050602061391289828a01612acc565b955050604061392389828a01612b02565b945050606061393489828a01612b02565b935050608087013567ffffffffffffffff81111561395557613954612a7e565b5b61396189828a01613594565b92509250509295509295509295565b600080600080600060a0868803121561398c5761398b612a79565b5b600061399a88828901612acc565b95505060206139ab88828901612acc565b94505060406139bc88828901612b02565b93505060606139cd88828901612b02565b925050608086013567ffffffffffffffff8111156139ee576139ed612a7e565b5b6139fa88828901613184565b9150509295509295909350565b7f455243313135353a2061646472657373207a65726f206973206e6f742061207660008201527f616c6964206f776e657200000000000000000000000000000000000000000000602082015250565b6000613a63602a83612ed3565b9150613a6e82613a07565b604082019050919050565b60006020820190508181036000830152613a9281613a56565b9050919050565b7f4e487b7100000000000000000000000000000000000000000000000000000000600052602260045260246000fd5b60006002820490506001821680613ae057607f821691505b60208210811415613af457613af3613a99565b5b50919050565b7f4e487b7100000000000000000000000000000000000000000000000000000000600052601160045260246000fd5b6000613b3482612ae1565b9150613b3f83612ae1565b9250827fffffffffffffffffffffffffffffffffffffffffffffffffffffffffffffffff03821115613b7457613b73613afa565b5b828201905092915050565b7f4e487b7100000000000000000000000000000000000000000000000000000000600052603260045260246000fd5b6000613bb982612ae1565b91507fffffffffffffffffffffffffffffffffffffffffffffffffffffffffffffffff821415613bec57613beb613afa565b5b600182019050919050565b7f455243313135353a2063616c6c6572206973206e6f7420746f6b656e206f776e60008201527f6572206f7220617070726f766564000000000000000000000000000000000000602082015250565b6000613c53602e83612ed3565b9150613c5e82613bf7565b604082019050919050565b60006020820190508181036000830152613c8281613c46565b9050919050565b7f74686520726571756573746564207175616e74697479206f662074686973206960008201527f74656d206973206e6f206c6f6e67657220617661696c61626c65000000000000602082015250565b6000613ce5603a83612ed3565b9150613cf082613c89565b604082019050919050565b60006020820190508181036000830152613d1481613cd8565b9050919050565b6000613d2682612ae1565b9150613d3183612ae1565b9250817fffffffffffffffffffffffffffffffffffffffffffffffffffffffffffffffff0483118215151615613d6a57613d69613afa565b5b828202905092915050565b7f506c65617365207375626d6974207468652061736b696e67207072696365206660008201527f6f722074686520746f6b656e0000000000000000000000000000000000000000602082015250565b6000613dd1602c83612ed3565b9150613ddc82613d75565b604082019050919050565b60006020820190508181036000830152613e0081613dc4565b9050919050565b6000613e1282612ae1565b9150613e1d83612ae1565b925082821015613e3057613e2f613afa565b5b828203905092915050565b7f455243313135353a206163636f756e747320616e6420696473206c656e67746860008201527f206d69736d617463680000000000000000000000000000000000000000000000602082015250565b6000613e97602983612ed3565b9150613ea282613e3b565b604082019050919050565b60006020820190508181036000830152613ec681613e8a565b9050919050565b7f6f6e6c79206f776e65722063616e207570646174652070726963650000000000600082015250565b6000613f03601b83612ed3565b9150613f0e82613ecd565b602082019050919050565b60006020820190508181036000830152613f3281613ef6565b9050919050565b7f4e6f7420656e6f756768207061696420746f206c697374000000000000000000600082015250565b6000613f6f601783612ed3565b9150613f7a82613f39565b602082019050919050565b60006020820190508181036000830152613f9e81613f62565b9050919050565b7f7072696365206d75737420626520706f73697469766500000000000000000000600082015250565b6000613fdb601683612ed3565b9150613fe682613fa5565b602082019050919050565b6000602082019050818103600083015261400a81613fce565b9050919050565b7f63616e6e6f7420637265617465203020696e7374616e63657300000000000000600082015250565b6000614047601983612ed3565b915061405282614011565b602082019050919050565b600060208201905081810360008301526140768161403a565b9050919050565b7f455243313135353a207472616e7366657220746f20746865207a65726f20616460008201527f6472657373000000000000000000000000000000000000000000000000000000602082015250565b60006140d9602583612ed3565b91506140e48261407d565b604082019050919050565b60006020820190508181036000830152614108816140cc565b9050919050565b7f455243313135353a20696e73756666696369656e742062616c616e636520666f60008201527f72207472616e7366657200000000000000000000000000000000000000000000602082015250565b600061416b602a83612ed3565b91506141768261410f565b604082019050919050565b6000602082019050818103600083015261419a8161415e565b9050919050565b60006040820190506141b66000830185612b57565b6141c36020830184612b57565b9392505050565b7f455243313135353a2069647320616e6420616d6f756e7473206c656e6774682060008201527f6d69736d61746368000000000000000000000000000000000000000000000000602082015250565b6000614226602883612ed3565b9150614231826141ca565b604082019050919050565b6000602082019050818103600083015261425581614219565b9050919050565b60006040820190508181036000830152614276818561344d565b9050818103602083015261428a818461344d565b90509392505050565b7f455243313135353a2073657474696e6720617070726f76616c2073746174757360008201527f20666f722073656c660000000000000000000000000000000000000000000000602082015250565b60006142ef602983612ed3565b91506142fa82614293565b604082019050919050565b6000602082019050818103600083015261431e816142e2565b9050919050565b7f455243313135353a206d696e7420746f20746865207a65726f2061646472657360008201527f7300000000000000000000000000000000000000000000000000000000000000602082015250565b6000614381602183612ed3565b915061438c82614325565b604082019050919050565b600060208201905081810360008301526143b081614374565b9050919050565b6143c081612aa3565b82525050565b600060a0820190506143db60008301886143b7565b6143e860208301876143b7565b6143f56040830186612b57565b6144026060830185612b57565b61440f6080830184612c12565b9695505050505050565b600081519050919050565b600082825260208201905092915050565b600061444082614419565b61444a8185614424565b935061445a818560208601612ee4565b61446381612ca8565b840191505092915050565b600060a08201905061448360008301886143b7565b61449060208301876143b7565b61449d6040830186612b57565b6144aa6060830185612b57565b81810360808301526144bc8184614435565b90509695505050505050565b6000815190506144d781612bad565b92915050565b6000602082840312156144f3576144f2612a79565b5b6000614501848285016144c8565b91505092915050565b60008160e01c9050919050565b600060033d11156145365760046000803e61453360005161450a565b90505b90565b600060443d1015614549576145cc565b614551612a6f565b60043d036004823e80513d602482011167ffffffffffffffff821117156145795750506145cc565b808201805167ffffffffffffffff81111561459757505050506145cc565b80602083010160043d0385018111156145b45750505050506145cc565b6145c382602001850186612ce8565b82955050505050505b90565b7f455243313135353a207472616e7366657220746f206e6f6e2d4552433131353560008201527f526563656976657220696d706c656d656e746572000000000000000000000000602082015250565b600061462b603483612ed3565b9150614636826145cf565b604082019050919050565b6000602082019050818103600083015261465a8161461e565b9050919050565b7f455243313135353a204552433131353552656365697665722072656a6563746560008201527f6420746f6b656e73000000000000000000000000000000000000000000000000602082015250565b60006146bd602883612ed3565b91506146c882614661565b604082019050919050565b600060208201905081810360008301526146ec816146b0565b9050919050565b600060a08201905061470860008301886143b7565b61471560208301876143b7565b8181036040830152614727818661344d565b9050818103606083015261473b818561344d565b9050818103608083015261474f8184614435565b9050969550505050505056fea264697066735822122027e621f0f1b28940c4bb0b27c02de9cc8610c72d83c404c65943d160785fc95e64736f6c63430008090033",
  "linkReferences": {},
  "deployedLinkReferences": {}
}