{
  "_format": "hh-sol-artifact-1",
  "contractName": "Marketplace",
  "sourceName": "contracts/Marketplace.sol",
  "abi": [
    {
      "inputs": [],
      "stateMutability": "nonpayable",
      "type": "constructor"
    },
    {
      "anonymous": false,
      "inputs": [
        {
          "indexed": true,
          "internalType": "address",
          "name": "account",
          "type": "address"
        },
        {
          "indexed": true,
          "internalType": "address",
          "name": "operator",
          "type": "address"
        },
        {
          "indexed": false,
          "internalType": "bool",
          "name": "approved",
          "type": "bool"
        }
      ],
      "name": "ApprovalForAll",
      "type": "event"
    },
    {
      "anonymous": false,
      "inputs": [
        {
          "indexed": true,
          "internalType": "uint256",
          "name": "tokenID",
          "type": "uint256"
        },
        {
          "indexed": false,
          "internalType": "address",
          "name": "owner",
          "type": "address"
        },
        {
          "indexed": false,
          "internalType": "address",
          "name": "seller",
          "type": "address"
        },
        {
          "indexed": false,
          "internalType": "uint256",
          "name": "price",
          "type": "uint256"
        },
        {
          "indexed": false,
          "internalType": "uint256",
          "name": "amount",
          "type": "uint256"
        },
        {
          "indexed": false,
          "internalType": "bool",
          "name": "currentlyListed",
          "type": "bool"
        }
      ],
      "name": "MediaListedSuccess",
      "type": "event"
    },
    {
      "anonymous": false,
      "inputs": [
        {
          "indexed": true,
          "internalType": "address",
          "name": "operator",
          "type": "address"
        },
        {
          "indexed": true,
          "internalType": "address",
          "name": "from",
          "type": "address"
        },
        {
          "indexed": true,
          "internalType": "address",
          "name": "to",
          "type": "address"
        },
        {
          "indexed": false,
          "internalType": "uint256[]",
          "name": "ids",
          "type": "uint256[]"
        },
        {
          "indexed": false,
          "internalType": "uint256[]",
          "name": "values",
          "type": "uint256[]"
        }
      ],
      "name": "TransferBatch",
      "type": "event"
    },
    {
      "anonymous": false,
      "inputs": [
        {
          "indexed": true,
          "internalType": "address",
          "name": "operator",
          "type": "address"
        },
        {
          "indexed": true,
          "internalType": "address",
          "name": "from",
          "type": "address"
        },
        {
          "indexed": true,
          "internalType": "address",
          "name": "to",
          "type": "address"
        },
        {
          "indexed": false,
          "internalType": "uint256",
          "name": "id",
          "type": "uint256"
        },
        {
          "indexed": false,
          "internalType": "uint256",
          "name": "value",
          "type": "uint256"
        }
      ],
      "name": "TransferSingle",
      "type": "event"
    },
    {
      "anonymous": false,
      "inputs": [
        {
          "indexed": false,
          "internalType": "string",
          "name": "value",
          "type": "string"
        },
        {
          "indexed": true,
          "internalType": "uint256",
          "name": "id",
          "type": "uint256"
        }
      ],
      "name": "URI",
      "type": "event"
    },
    {
      "inputs": [
        {
          "internalType": "address",
          "name": "account",
          "type": "address"
        },
        {
          "internalType": "uint256",
          "name": "id",
          "type": "uint256"
        }
      ],
      "name": "balanceOf",
      "outputs": [
        {
          "internalType": "uint256",
          "name": "",
          "type": "uint256"
        }
      ],
      "stateMutability": "view",
      "type": "function"
    },
    {
      "inputs": [
        {
          "internalType": "address[]",
          "name": "accounts",
          "type": "address[]"
        },
        {
          "internalType": "uint256[]",
          "name": "ids",
          "type": "uint256[]"
        }
      ],
      "name": "balanceOfBatch",
      "outputs": [
        {
          "internalType": "uint256[]",
          "name": "",
          "type": "uint256[]"
        }
      ],
      "stateMutability": "view",
      "type": "function"
    },
    {
      "inputs": [
        {
          "internalType": "string",
          "name": "tokenURI",
          "type": "string"
        },
        {
          "internalType": "uint256",
          "name": "price",
          "type": "uint256"
        },
        {
          "internalType": "uint256",
          "name": "amount",
          "type": "uint256"
        }
      ],
      "name": "createMedia",
      "outputs": [
        {
          "internalType": "uint256",
          "name": "",
          "type": "uint256"
        }
      ],
      "stateMutability": "payable",
      "type": "function"
    },
    {
      "inputs": [
        {
          "internalType": "uint256",
          "name": "tokenID",
          "type": "uint256"
        },
        {
          "internalType": "uint256",
          "name": "amount",
          "type": "uint256"
        }
      ],
      "name": "executeSale",
      "outputs": [],
      "stateMutability": "payable",
      "type": "function"
    },
    {
      "inputs": [],
      "name": "getAllTokens",
      "outputs": [
        {
          "components": [
            {
              "internalType": "uint256",
              "name": "tokenID",
              "type": "uint256"
            },
            {
              "internalType": "address payable",
              "name": "owner",
              "type": "address"
            },
            {
              "internalType": "address payable",
              "name": "seller",
              "type": "address"
            },
            {
              "internalType": "uint256",
              "name": "price",
              "type": "uint256"
            },
            {
              "internalType": "uint256",
              "name": "amountListed",
              "type": "uint256"
            }
          ],
          "internalType": "struct Marketplace.Media[]",
          "name": "",
          "type": "tuple[]"
        }
      ],
      "stateMutability": "view",
      "type": "function"
    },
    {
      "inputs": [],
      "name": "getAvailableTokens",
      "outputs": [
        {
          "components": [
            {
              "internalType": "uint256",
              "name": "tokenID",
              "type": "uint256"
            },
            {
              "internalType": "address payable",
              "name": "owner",
              "type": "address"
            },
            {
              "internalType": "address payable",
              "name": "seller",
              "type": "address"
            },
            {
              "internalType": "uint256",
              "name": "price",
              "type": "uint256"
            },
            {
              "internalType": "uint256",
              "name": "amountListed",
              "type": "uint256"
            }
          ],
          "internalType": "struct Marketplace.Media[]",
          "name": "",
          "type": "tuple[]"
        }
      ],
      "stateMutability": "view",
      "type": "function"
    },
    {
      "inputs": [],
      "name": "getCurrentToken",
      "outputs": [
        {
          "internalType": "uint256",
          "name": "",
          "type": "uint256"
        }
      ],
      "stateMutability": "view",
      "type": "function"
    },
    {
      "inputs": [],
      "name": "getLatestIdToMedia",
      "outputs": [
        {
          "components": [
            {
              "internalType": "uint256",
              "name": "tokenID",
              "type": "uint256"
            },
            {
              "internalType": "address payable",
              "name": "owner",
              "type": "address"
            },
            {
              "internalType": "address payable",
              "name": "seller",
              "type": "address"
            },
            {
              "internalType": "uint256",
              "name": "price",
              "type": "uint256"
            },
            {
              "internalType": "uint256",
              "name": "amountListed",
              "type": "uint256"
            }
          ],
          "internalType": "struct Marketplace.Media",
          "name": "",
          "type": "tuple"
        }
      ],
      "stateMutability": "view",
      "type": "function"
    },
    {
      "inputs": [
        {
          "internalType": "uint256",
          "name": "tokenID",
          "type": "uint256"
        }
      ],
      "name": "getListedForTokenID",
      "outputs": [
        {
          "components": [
            {
              "internalType": "uint256",
              "name": "tokenID",
              "type": "uint256"
            },
            {
              "internalType": "address payable",
              "name": "owner",
              "type": "address"
            },
            {
              "internalType": "address payable",
              "name": "seller",
              "type": "address"
            },
            {
              "internalType": "uint256",
              "name": "price",
              "type": "uint256"
            },
            {
              "internalType": "uint256",
              "name": "amountListed",
              "type": "uint256"
            }
          ],
          "internalType": "struct Marketplace.Media",
          "name": "",
          "type": "tuple"
        }
      ],
      "stateMutability": "view",
      "type": "function"
    },
    {
      "inputs": [],
      "name": "getMyTokens",
      "outputs": [
        {
          "components": [
            {
              "internalType": "uint256",
              "name": "tokenID",
              "type": "uint256"
            },
            {
              "internalType": "address payable",
              "name": "owner",
              "type": "address"
            },
            {
              "internalType": "address payable",
              "name": "seller",
              "type": "address"
            },
            {
              "internalType": "uint256",
              "name": "price",
              "type": "uint256"
            },
            {
              "internalType": "uint256",
              "name": "amountListed",
              "type": "uint256"
            }
          ],
          "internalType": "struct Marketplace.Media[]",
          "name": "",
          "type": "tuple[]"
        }
      ],
      "stateMutability": "view",
      "type": "function"
    },
    {
      "inputs": [],
      "name": "getPublishPrice",
      "outputs": [
        {
          "internalType": "uint256",
          "name": "",
          "type": "uint256"
        }
      ],
      "stateMutability": "view",
      "type": "function"
    },
    {
      "inputs": [
        {
          "internalType": "address",
          "name": "account",
          "type": "address"
        },
        {
          "internalType": "address",
          "name": "operator",
          "type": "address"
        }
      ],
      "name": "isApprovedForAll",
      "outputs": [
        {
          "internalType": "bool",
          "name": "",
          "type": "bool"
        }
      ],
      "stateMutability": "view",
      "type": "function"
    },
    {
      "inputs": [
        {
          "internalType": "address",
          "name": "_operator",
          "type": "address"
        },
        {
          "internalType": "address",
          "name": "_from",
          "type": "address"
        },
        {
          "internalType": "uint256[]",
          "name": "_ids",
          "type": "uint256[]"
        },
        {
          "internalType": "uint256[]",
          "name": "_values",
          "type": "uint256[]"
        },
        {
          "internalType": "bytes",
          "name": "_data",
          "type": "bytes"
        }
      ],
      "name": "onERC1155BatchReceived",
      "outputs": [
        {
          "internalType": "bytes4",
          "name": "",
          "type": "bytes4"
        }
      ],
      "stateMutability": "nonpayable",
      "type": "function"
    },
    {
      "inputs": [
        {
          "internalType": "address",
          "name": "operator",
          "type": "address"
        },
        {
          "internalType": "address",
          "name": "from",
          "type": "address"
        },
        {
          "internalType": "uint256",
          "name": "id",
          "type": "uint256"
        },
        {
          "internalType": "uint256",
          "name": "value",
          "type": "uint256"
        },
        {
          "internalType": "bytes",
          "name": "data",
          "type": "bytes"
        }
      ],
      "name": "onERC1155Received",
      "outputs": [
        {
          "internalType": "bytes4",
          "name": "",
          "type": "bytes4"
        }
      ],
      "stateMutability": "pure",
      "type": "function"
    },
    {
      "inputs": [
        {
          "internalType": "address",
          "name": "from",
          "type": "address"
        },
        {
          "internalType": "address",
          "name": "to",
          "type": "address"
        },
        {
          "internalType": "uint256[]",
          "name": "ids",
          "type": "uint256[]"
        },
        {
          "internalType": "uint256[]",
          "name": "amounts",
          "type": "uint256[]"
        },
        {
          "internalType": "bytes",
          "name": "data",
          "type": "bytes"
        }
      ],
      "name": "safeBatchTransferFrom",
      "outputs": [],
      "stateMutability": "nonpayable",
      "type": "function"
    },
    {
      "inputs": [
        {
          "internalType": "address",
          "name": "from",
          "type": "address"
        },
        {
          "internalType": "address",
          "name": "to",
          "type": "address"
        },
        {
          "internalType": "uint256",
          "name": "id",
          "type": "uint256"
        },
        {
          "internalType": "uint256",
          "name": "amount",
          "type": "uint256"
        },
        {
          "internalType": "bytes",
          "name": "data",
          "type": "bytes"
        }
      ],
      "name": "safeTransferFrom",
      "outputs": [],
      "stateMutability": "nonpayable",
      "type": "function"
    },
    {
      "inputs": [
        {
          "internalType": "address",
          "name": "operator",
          "type": "address"
        },
        {
          "internalType": "bool",
          "name": "approved",
          "type": "bool"
        }
      ],
      "name": "setApprovalForAll",
      "outputs": [],
      "stateMutability": "nonpayable",
      "type": "function"
    },
    {
      "inputs": [
        {
          "internalType": "bytes4",
          "name": "interfaceId",
          "type": "bytes4"
        }
      ],
      "name": "supportsInterface",
      "outputs": [
        {
          "internalType": "bool",
          "name": "",
          "type": "bool"
        }
      ],
      "stateMutability": "view",
      "type": "function"
    },
    {
      "inputs": [
        {
          "internalType": "address",
          "name": "from",
          "type": "address"
        },
        {
          "internalType": "address",
          "name": "to",
          "type": "address"
        },
        {
          "internalType": "uint256",
          "name": "tokenID",
          "type": "uint256"
        },
        {
          "internalType": "uint256",
          "name": "amount",
          "type": "uint256"
        }
      ],
      "name": "transfer",
      "outputs": [],
      "stateMutability": "nonpayable",
      "type": "function"
    },
    {
      "inputs": [
        {
          "internalType": "address",
          "name": "from",
          "type": "address"
        },
        {
          "internalType": "address",
          "name": "to",
          "type": "address"
        },
        {
          "internalType": "uint256[]",
          "name": "tokenIDs",
          "type": "uint256[]"
        },
        {
          "internalType": "uint256[]",
          "name": "amounts",
          "type": "uint256[]"
        }
      ],
      "name": "transferBatch",
      "outputs": [],
      "stateMutability": "nonpayable",
      "type": "function"
    },
    {
      "inputs": [
        {
          "internalType": "uint256",
          "name": "_publishPrice",
          "type": "uint256"
        }
      ],
      "name": "updateListedPrice",
      "outputs": [],
      "stateMutability": "payable",
      "type": "function"
    },
    {
      "inputs": [
        {
          "internalType": "uint256",
          "name": "tokenID",
          "type": "uint256"
        }
      ],
      "name": "uri",
      "outputs": [
        {
          "internalType": "string",
          "name": "",
          "type": "string"
        }
      ],
      "stateMutability": "view",
      "type": "function"
    }
  ],
  "bytecode": "0x608060405260016006553480156200001657600080fd5b506040518060400160405280600681526020017f556e7573656400000000000000000000000000000000000000000000000000008152506200005e81620000b660201b60201c565b5033600560006101000a81548173ffffffffffffffffffffffffffffffffffffffff021916908373ffffffffffffffffffffffffffffffffffffffff16021790555060006003819055506000600481905550620001e7565b8060029080519060200190620000ce929190620000d2565b5050565b828054620000e090620001b1565b90600052602060002090601f01602090048101928262000104576000855562000150565b82601f106200011f57805160ff191683800117855562000150565b8280016001018555821562000150579182015b828111156200014f57825182559160200191906001019062000132565b5b5090506200015f919062000163565b5090565b5b808211156200017e57600081600090555060010162000164565b5090565b7f4e487b7100000000000000000000000000000000000000000000000000000000600052602260045260246000fd5b60006002820490506001821680620001ca57607f821691505b60208210811415620001e157620001e062000182565b5b50919050565b61467480620001f76000396000f3fe6080604052600436106101345760003560e01c80639e52ce14116100ab578063e35568cb1161006f578063e35568cb14610422578063e985e9c51461044d578063ea2c03bb1461048a578063ef2d1746146104c7578063f23a6e61146104f2578063f242432a1461052f57610134565b80639e52ce1414610345578063a22cb46514610361578063bc197c811461038a578063c5bcf99b146103c7578063ce3c64b2146103f257610134565b806310232575116100fd57806310232575146102425780632a5c792a1461026d5780632eb2c2d6146102985780634437b60b146102c15780634e1273f4146102dd5780635b3b136a1461031a57610134565b8062fdd58e1461013957806301ffc9a7146101765780630411b252146101b35780630731a369146101dc5780630e89341c14610205575b600080fd5b34801561014557600080fd5b50610160600480360381019061015b9190612a2f565b610558565b60405161016d9190612a7e565b60405180910390f35b34801561018257600080fd5b5061019d60048036038101906101989190612af1565b610621565b6040516101aa9190612b39565b60405180910390f35b3480156101bf57600080fd5b506101da60048036038101906101d59190612b54565b610703565b005b3480156101e857600080fd5b5061020360048036038101906101fe9190612d14565b610725565b005b34801561021157600080fd5b5061022c60048036038101906102279190612db3565b610747565b6040516102399190612e68565b60405180910390f35b34801561024e57600080fd5b506102576107ec565b6040516102649190612a7e565b60405180910390f35b34801561027957600080fd5b506102826107f6565b60405161028f9190612fd1565b60405180910390f35b3480156102a457600080fd5b506102bf60048036038101906102ba91906130a8565b6109ad565b005b6102db60048036038101906102d69190613177565b610a4e565b005b3480156102e957600080fd5b5061030460048036038101906102ff919061327a565b610ce1565b60405161031191906133a1565b60405180910390f35b34801561032657600080fd5b5061032f610dfa565b60405161033c9190612fd1565b60405180910390f35b61035f600480360381019061035a9190612db3565b6111c0565b005b34801561036d57600080fd5b50610388600480360381019061038391906133ef565b61125a565b005b34801561039657600080fd5b506103b160048036038101906103ac91906134e0565b611270565b6040516103be91906135cb565b60405180910390f35b3480156103d357600080fd5b506103dc61127e565b6040516103e9919061364e565b60405180910390f35b61040c6004803603810190610407919061370a565b61137b565b6040516104199190612a7e565b60405180910390f35b34801561042e57600080fd5b506104376114a1565b6040516104449190612fd1565b60405180910390f35b34801561045957600080fd5b50610474600480360381019061046f9190613779565b6116e1565b6040516104819190612b39565b60405180910390f35b34801561049657600080fd5b506104b160048036038101906104ac9190612db3565b611775565b6040516104be919061364e565b60405180910390f35b3480156104d357600080fd5b506104dc61186c565b6040516104e99190612a7e565b60405180910390f35b3480156104fe57600080fd5b50610519600480360381019061051491906137b9565b611876565b60405161052691906135cb565b60405180910390f35b34801561053b57600080fd5b5061055660048036038101906105519190613853565b61188c565b005b60008073ffffffffffffffffffffffffffffffffffffffff168373ffffffffffffffffffffffffffffffffffffffff1614156105c9576040517f08c379a00000000000000000000000000000000000000000000000000000000081526004016105c09061395c565b60405180910390fd5b60008083815260200190815260200160002060008473ffffffffffffffffffffffffffffffffffffffff1673ffffffffffffffffffffffffffffffffffffffff16815260200190815260200160002054905092915050565b60007fd9b67a26000000000000000000000000000000000000000000000000000000007bffffffffffffffffffffffffffffffffffffffffffffffffffffffff1916827bffffffffffffffffffffffffffffffffffffffffffffffffffffffff191614806106ec57507f0e89341c000000000000000000000000000000000000000000000000000000007bffffffffffffffffffffffffffffffffffffffffffffffffffffffff1916827bffffffffffffffffffffffffffffffffffffffffffffffffffffffff1916145b806106fc57506106fb8261192d565b5b9050919050565b61071f8484848460405180602001604052806000815250611997565b50505050565b6107418484848460405180602001604052806000815250611c33565b50505050565b6060600860008381526020019081526020016000208054610767906139ab565b80601f0160208091040260200160405190810160405280929190818152602001828054610793906139ab565b80156107e05780601f106107b5576101008083540402835291602001916107e0565b820191906000526020600020905b8154815290600101906020018083116107c357829003601f168201915b50505050509050919050565b6000600654905090565b60606000600354905060008167ffffffffffffffff81111561081b5761081a612bd1565b5b60405190808252806020026020018201604052801561085457816020015b610841612889565b8152602001906001900390816108395790505b5090506000805b838110156109a35760006001826108729190613a0c565b90506000600760008381526020019081526020016000209050806040518060a0016040529081600082015481526020016001820160009054906101000a900473ffffffffffffffffffffffffffffffffffffffff1673ffffffffffffffffffffffffffffffffffffffff1673ffffffffffffffffffffffffffffffffffffffff1681526020016002820160009054906101000a900473ffffffffffffffffffffffffffffffffffffffff1673ffffffffffffffffffffffffffffffffffffffff1673ffffffffffffffffffffffffffffffffffffffff1681526020016003820154815260200160048201548152505085858151811061097457610973613a62565b5b602002602001018190525060018461098c9190613a0c565b93505050808061099b90613a91565b91505061085b565b5081935050505090565b6109b5611f55565b73ffffffffffffffffffffffffffffffffffffffff168573ffffffffffffffffffffffffffffffffffffffff1614806109fb57506109fa856109f5611f55565b6116e1565b5b610a3a576040517f08c379a0000000000000000000000000000000000000000000000000000000008152600401610a3190613b4c565b60405180910390fd5b610a478585858585611c33565b5050505050565b60006007600084815260200190815260200160002060030154905060006007600085815260200190815260200160002060020160009054906101000a900473ffffffffffffffffffffffffffffffffffffffff1690508260076000868152602001908152602001600020600401541015610afd576040517f08c379a0000000000000000000000000000000000000000000000000000000008152600401610af490613bde565b60405180910390fd5b8282610b099190613bfe565b3414610b4a576040517f08c379a0000000000000000000000000000000000000000000000000000000008152600401610b4190613cca565b60405180910390fd5b826007600086815260200190815260200160002060040154610b6c9190613cea565b6007600086815260200190815260200160002060040181905550336007600086815260200190815260200160002060020160006101000a81548173ffffffffffffffffffffffffffffffffffffffff021916908373ffffffffffffffffffffffffffffffffffffffff16021790555060005b83811015610c115760046000815480929190610bf990613a91565b91905055508080610c0990613a91565b915050610bde565b50610c1e30338686610703565b610c2981600161125a565b600560009054906101000a900473ffffffffffffffffffffffffffffffffffffffff1673ffffffffffffffffffffffffffffffffffffffff166108fc6006549081150290604051600060405180830381858888f19350505050158015610c93573d6000803e3d6000fd5b508073ffffffffffffffffffffffffffffffffffffffff166108fc349081150290604051600060405180830381858888f19350505050158015610cda573d6000803e3d6000fd5b5050505050565b60608151835114610d27576040517f08c379a0000000000000000000000000000000000000000000000000000000008152600401610d1e90613d90565b60405180910390fd5b6000835167ffffffffffffffff811115610d4457610d43612bd1565b5b604051908082528060200260200182016040528015610d725781602001602082028036833780820191505090505b50905060005b8451811015610def57610dbf858281518110610d9757610d96613a62565b5b6020026020010151858381518110610db257610db1613a62565b5b6020026020010151610558565b828281518110610dd257610dd1613a62565b5b60200260200101818152505080610de890613a91565b9050610d78565b508091505092915050565b60606000600354905060008060005b83811015610f22573373ffffffffffffffffffffffffffffffffffffffff1660076000600184610e399190613a0c565b815260200190815260200160002060010160009054906101000a900473ffffffffffffffffffffffffffffffffffffffff1673ffffffffffffffffffffffffffffffffffffffff161480610efa57503373ffffffffffffffffffffffffffffffffffffffff1660076000600184610eb09190613a0c565b815260200190815260200160002060020160009054906101000a900473ffffffffffffffffffffffffffffffffffffffff1673ffffffffffffffffffffffffffffffffffffffff16145b15610f0f57600183610f0c9190613a0c565b92505b8080610f1a90613a91565b915050610e09565b5060008267ffffffffffffffff811115610f3f57610f3e612bd1565b5b604051908082528060200260200182016040528015610f7857816020015b610f65612889565b815260200190600190039081610f5d5790505b50905060005b848110156111b5573373ffffffffffffffffffffffffffffffffffffffff1660076000600184610fae9190613a0c565b815260200190815260200160002060010160009054906101000a900473ffffffffffffffffffffffffffffffffffffffff1673ffffffffffffffffffffffffffffffffffffffff16148061106f57503373ffffffffffffffffffffffffffffffffffffffff16600760006001846110259190613a0c565b815260200190815260200160002060020160009054906101000a900473ffffffffffffffffffffffffffffffffffffffff1673ffffffffffffffffffffffffffffffffffffffff16145b156111a25760006001826110839190613a0c565b90506000600760008381526020019081526020016000209050806040518060a0016040529081600082015481526020016001820160009054906101000a900473ffffffffffffffffffffffffffffffffffffffff1673ffffffffffffffffffffffffffffffffffffffff1673ffffffffffffffffffffffffffffffffffffffff1681526020016002820160009054906101000a900473ffffffffffffffffffffffffffffffffffffffff1673ffffffffffffffffffffffffffffffffffffffff1673ffffffffffffffffffffffffffffffffffffffff1681526020016003820154815260200160048201548152505084868151811061118557611184613a62565b5b602002602001018190525060018561119d9190613a0c565b945050505b80806111ad90613a91565b915050610f7e565b508094505050505090565b3373ffffffffffffffffffffffffffffffffffffffff16600560009054906101000a900473ffffffffffffffffffffffffffffffffffffffff1673ffffffffffffffffffffffffffffffffffffffff1614611250576040517f08c379a000000000000000000000000000000000000000000000000000000000815260040161124790613dfc565b60405180910390fd5b8060068190555050565b61126c611265611f55565b8383611f5d565b5050565b600098975050505050505050565b611286612889565b60006003549050600760008281526020019081526020016000206040518060a0016040529081600082015481526020016001820160009054906101000a900473ffffffffffffffffffffffffffffffffffffffff1673ffffffffffffffffffffffffffffffffffffffff1673ffffffffffffffffffffffffffffffffffffffff1681526020016002820160009054906101000a900473ffffffffffffffffffffffffffffffffffffffff1673ffffffffffffffffffffffffffffffffffffffff1673ffffffffffffffffffffffffffffffffffffffff1681526020016003820154815260200160048201548152505091505090565b600060065434146113c1576040517f08c379a00000000000000000000000000000000000000000000000000000000081526004016113b890613e68565b60405180910390fd5b60008311611404576040517f08c379a00000000000000000000000000000000000000000000000000000000081526004016113fb90613ed4565b60405180910390fd5b60008211611447576040517f08c379a000000000000000000000000000000000000000000000000000000000815260040161143e90613f40565b60405180910390fd5b6003600081548092919061145a90613a91565b919050555060006003549050611481338285604051806020016040528060008152506120ca565b61148b818661227b565b6114968185856122a7565b809150509392505050565b60606000600354905060008060005b83811015611506576000600760006001846114cb9190613a0c565b81526020019081526020016000206004015411156114f3576001836114f09190613a0c565b92505b80806114fe90613a91565b9150506114b0565b5060008267ffffffffffffffff81111561152357611522612bd1565b5b60405190808252806020026020018201604052801561155c57816020015b611549612889565b8152602001906001900390816115415790505b50905060005b848110156116d65760006007600060018461157d9190613a0c565b81526020019081526020016000206004015411156116c35760006001826115a49190613a0c565b90506000600760008381526020019081526020016000209050806040518060a0016040529081600082015481526020016001820160009054906101000a900473ffffffffffffffffffffffffffffffffffffffff1673ffffffffffffffffffffffffffffffffffffffff1673ffffffffffffffffffffffffffffffffffffffff1681526020016002820160009054906101000a900473ffffffffffffffffffffffffffffffffffffffff1673ffffffffffffffffffffffffffffffffffffffff1673ffffffffffffffffffffffffffffffffffffffff168152602001600382015481526020016004820154815250508486815181106116a6576116a5613a62565b5b60200260200101819052506001856116be9190613a0c565b945050505b80806116ce90613a91565b915050611562565b508094505050505090565b6000600160008473ffffffffffffffffffffffffffffffffffffffff1673ffffffffffffffffffffffffffffffffffffffff16815260200190815260200160002060008373ffffffffffffffffffffffffffffffffffffffff1673ffffffffffffffffffffffffffffffffffffffff16815260200190815260200160002060009054906101000a900460ff16905092915050565b61177d612889565b600760008381526020019081526020016000206040518060a0016040529081600082015481526020016001820160009054906101000a900473ffffffffffffffffffffffffffffffffffffffff1673ffffffffffffffffffffffffffffffffffffffff1673ffffffffffffffffffffffffffffffffffffffff1681526020016002820160009054906101000a900473ffffffffffffffffffffffffffffffffffffffff1673ffffffffffffffffffffffffffffffffffffffff1673ffffffffffffffffffffffffffffffffffffffff168152602001600382015481526020016004820154815250509050919050565b6000600354905090565b600063f23a6e6160e01b90509695505050505050565b611894611f55565b73ffffffffffffffffffffffffffffffffffffffff168573ffffffffffffffffffffffffffffffffffffffff1614806118da57506118d9856118d4611f55565b6116e1565b5b611919576040517f08c379a000000000000000000000000000000000000000000000000000000000815260040161191090613b4c565b60405180910390fd5b6119268585858585611997565b5050505050565b60007f01ffc9a7000000000000000000000000000000000000000000000000000000007bffffffffffffffffffffffffffffffffffffffffffffffffffffffff1916827bffffffffffffffffffffffffffffffffffffffffffffffffffffffff1916149050919050565b600073ffffffffffffffffffffffffffffffffffffffff168473ffffffffffffffffffffffffffffffffffffffff161415611a07576040517f08c379a00000000000000000000000000000000000000000000000000000000081526004016119fe90613fd2565b60405180910390fd5b6000611a11611f55565b90506000611a1e8561240e565b90506000611a2b8561240e565b9050611a3b838989858589612488565b600080600088815260200190815260200160002060008a73ffffffffffffffffffffffffffffffffffffffff1673ffffffffffffffffffffffffffffffffffffffff16815260200190815260200160002054905085811015611ad2576040517f08c379a0000000000000000000000000000000000000000000000000000000008152600401611ac990614064565b60405180910390fd5b85810360008089815260200190815260200160002060008b73ffffffffffffffffffffffffffffffffffffffff1673ffffffffffffffffffffffffffffffffffffffff168152602001908152602001600020819055508560008089815260200190815260200160002060008a73ffffffffffffffffffffffffffffffffffffffff1673ffffffffffffffffffffffffffffffffffffffff1681526020019081526020016000206000828254611b879190613a0c565b925050819055508773ffffffffffffffffffffffffffffffffffffffff168973ffffffffffffffffffffffffffffffffffffffff168573ffffffffffffffffffffffffffffffffffffffff167fc3d58168c5ae7397731d063d5bbf3d657854427343f4c083240f7aacaa2d0f628a8a604051611c04929190614084565b60405180910390a4611c1a848a8a86868a612490565b611c28848a8a8a8a8a612498565b505050505050505050565b8151835114611c77576040517f08c379a0000000000000000000000000000000000000000000000000000000008152600401611c6e9061411f565b60405180910390fd5b600073ffffffffffffffffffffffffffffffffffffffff168473ffffffffffffffffffffffffffffffffffffffff161415611ce7576040517f08c379a0000000000000000000000000000000000000000000000000000000008152600401611cde90613fd2565b60405180910390fd5b6000611cf1611f55565b9050611d01818787878787612488565b60005b8451811015611eb2576000858281518110611d2257611d21613a62565b5b602002602001015190506000858381518110611d4157611d40613a62565b5b60200260200101519050600080600084815260200190815260200160002060008b73ffffffffffffffffffffffffffffffffffffffff1673ffffffffffffffffffffffffffffffffffffffff16815260200190815260200160002054905081811015611de2576040517f08c379a0000000000000000000000000000000000000000000000000000000008152600401611dd990614064565b60405180910390fd5b81810360008085815260200190815260200160002060008c73ffffffffffffffffffffffffffffffffffffffff1673ffffffffffffffffffffffffffffffffffffffff168152602001908152602001600020819055508160008085815260200190815260200160002060008b73ffffffffffffffffffffffffffffffffffffffff1673ffffffffffffffffffffffffffffffffffffffff1681526020019081526020016000206000828254611e979190613a0c565b9250508190555050505080611eab90613a91565b9050611d04565b508473ffffffffffffffffffffffffffffffffffffffff168673ffffffffffffffffffffffffffffffffffffffff168273ffffffffffffffffffffffffffffffffffffffff167f4a39dc06d4c0dbc64b70af90fd698a233a518aa5d07e595d983b8c0526c8f7fb8787604051611f2992919061413f565b60405180910390a4611f3f818787878787612490565b611f4d81878787878761267f565b505050505050565b600033905090565b8173ffffffffffffffffffffffffffffffffffffffff168373ffffffffffffffffffffffffffffffffffffffff161415611fcc576040517f08c379a0000000000000000000000000000000000000000000000000000000008152600401611fc3906141e8565b60405180910390fd5b80600160008573ffffffffffffffffffffffffffffffffffffffff1673ffffffffffffffffffffffffffffffffffffffff16815260200190815260200160002060008473ffffffffffffffffffffffffffffffffffffffff1673ffffffffffffffffffffffffffffffffffffffff16815260200190815260200160002060006101000a81548160ff0219169083151502179055508173ffffffffffffffffffffffffffffffffffffffff168373ffffffffffffffffffffffffffffffffffffffff167f17307eab39ab6107e8899845ad3d59bd9653f200f220920489ca2b5937696c31836040516120bd9190612b39565b60405180910390a3505050565b600073ffffffffffffffffffffffffffffffffffffffff168473ffffffffffffffffffffffffffffffffffffffff16141561213a576040517f08c379a00000000000000000000000000000000000000000000000000000000081526004016121319061427a565b60405180910390fd5b6000612144611f55565b905060006121518561240e565b9050600061215e8561240e565b905061216f83600089858589612488565b8460008088815260200190815260200160002060008973ffffffffffffffffffffffffffffffffffffffff1673ffffffffffffffffffffffffffffffffffffffff16815260200190815260200160002060008282546121ce9190613a0c565b925050819055508673ffffffffffffffffffffffffffffffffffffffff16600073ffffffffffffffffffffffffffffffffffffffff168473ffffffffffffffffffffffffffffffffffffffff167fc3d58168c5ae7397731d063d5bbf3d657854427343f4c083240f7aacaa2d0f62898960405161224c929190614084565b60405180910390a461226383600089858589612490565b61227283600089898989612498565b50505050505050565b806008600084815260200190815260200160002090805190602001906122a29291906128e4565b505050565b6040518060a001604052808481526020013073ffffffffffffffffffffffffffffffffffffffff1681526020013373ffffffffffffffffffffffffffffffffffffffff16815260200183815260200182815250600760008581526020019081526020016000206000820151816000015560208201518160010160006101000a81548173ffffffffffffffffffffffffffffffffffffffff021916908373ffffffffffffffffffffffffffffffffffffffff16021790555060408201518160020160006101000a81548173ffffffffffffffffffffffffffffffffffffffff021916908373ffffffffffffffffffffffffffffffffffffffff16021790555060608201518160030155608082015181600401559050506123c833308584610703565b827ff40ae6a2e1d3d4af7964a158a8687cadbfad8bd38349d9d1914cfec9786460743033848660016040516124019594939291906142a9565b60405180910390a2505050565b60606000600167ffffffffffffffff81111561242d5761242c612bd1565b5b60405190808252806020026020018201604052801561245b5781602001602082028036833780820191505090505b509050828160008151811061247357612472613a62565b5b60200260200101818152505080915050919050565b505050505050565b505050505050565b6124b78473ffffffffffffffffffffffffffffffffffffffff16612866565b15612677578373ffffffffffffffffffffffffffffffffffffffff1663f23a6e6187878686866040518663ffffffff1660e01b81526004016124fd959493929190614351565b602060405180830381600087803b15801561251757600080fd5b505af192505050801561254857506040513d601f19601f8201168201806040525081019061254591906143c0565b60015b6125ee576125546143fa565b806308c379a014156125b1575061256961441c565b8061257457506125b3565b806040517f08c379a00000000000000000000000000000000000000000000000000000000081526004016125a89190612e68565b60405180910390fd5b505b6040517f08c379a00000000000000000000000000000000000000000000000000000000081526004016125e590614524565b60405180910390fd5b63f23a6e6160e01b7bffffffffffffffffffffffffffffffffffffffffffffffffffffffff1916817bffffffffffffffffffffffffffffffffffffffffffffffffffffffff191614612675576040517f08c379a000000000000000000000000000000000000000000000000000000000815260040161266c906145b6565b60405180910390fd5b505b505050505050565b61269e8473ffffffffffffffffffffffffffffffffffffffff16612866565b1561285e578373ffffffffffffffffffffffffffffffffffffffff1663bc197c8187878686866040518663ffffffff1660e01b81526004016126e49594939291906145d6565b602060405180830381600087803b1580156126fe57600080fd5b505af192505050801561272f57506040513d601f19601f8201168201806040525081019061272c91906143c0565b60015b6127d55761273b6143fa565b806308c379a01415612798575061275061441c565b8061275b575061279a565b806040517f08c379a000000000000000000000000000000000000000000000000000000000815260040161278f9190612e68565b60405180910390fd5b505b6040517f08c379a00000000000000000000000000000000000000000000000000000000081526004016127cc90614524565b60405180910390fd5b63bc197c8160e01b7bffffffffffffffffffffffffffffffffffffffffffffffffffffffff1916817bffffffffffffffffffffffffffffffffffffffffffffffffffffffff19161461285c576040517f08c379a0000000000000000000000000000000000000000000000000000000008152600401612853906145b6565b60405180910390fd5b505b505050505050565b6000808273ffffffffffffffffffffffffffffffffffffffff163b119050919050565b6040518060a0016040528060008152602001600073ffffffffffffffffffffffffffffffffffffffff168152602001600073ffffffffffffffffffffffffffffffffffffffff16815260200160008152602001600081525090565b8280546128f0906139ab565b90600052602060002090601f0160209004810192826129125760008555612959565b82601f1061292b57805160ff1916838001178555612959565b82800160010185558215612959579182015b8281111561295857825182559160200191906001019061293d565b5b509050612966919061296a565b5090565b5b8082111561298357600081600090555060010161296b565b5090565b6000604051905090565b600080fd5b600080fd5b600073ffffffffffffffffffffffffffffffffffffffff82169050919050565b60006129c68261299b565b9050919050565b6129d6816129bb565b81146129e157600080fd5b50565b6000813590506129f3816129cd565b92915050565b6000819050919050565b612a0c816129f9565b8114612a1757600080fd5b50565b600081359050612a2981612a03565b92915050565b60008060408385031215612a4657612a45612991565b5b6000612a54858286016129e4565b9250506020612a6585828601612a1a565b9150509250929050565b612a78816129f9565b82525050565b6000602082019050612a936000830184612a6f565b92915050565b60007fffffffff0000000000000000000000000000000000000000000000000000000082169050919050565b612ace81612a99565b8114612ad957600080fd5b50565b600081359050612aeb81612ac5565b92915050565b600060208284031215612b0757612b06612991565b5b6000612b1584828501612adc565b91505092915050565b60008115159050919050565b612b3381612b1e565b82525050565b6000602082019050612b4e6000830184612b2a565b92915050565b60008060008060808587031215612b6e57612b6d612991565b5b6000612b7c878288016129e4565b9450506020612b8d878288016129e4565b9350506040612b9e87828801612a1a565b9250506060612baf87828801612a1a565b91505092959194509250565b600080fd5b6000601f19601f8301169050919050565b7f4e487b7100000000000000000000000000000000000000000000000000000000600052604160045260246000fd5b612c0982612bc0565b810181811067ffffffffffffffff82111715612c2857612c27612bd1565b5b80604052505050565b6000612c3b612987565b9050612c478282612c00565b919050565b600067ffffffffffffffff821115612c6757612c66612bd1565b5b602082029050602081019050919050565b600080fd5b6000612c90612c8b84612c4c565b612c31565b90508083825260208201905060208402830185811115612cb357612cb2612c78565b5b835b81811015612cdc5780612cc88882612a1a565b845260208401935050602081019050612cb5565b5050509392505050565b600082601f830112612cfb57612cfa612bbb565b5b8135612d0b848260208601612c7d565b91505092915050565b60008060008060808587031215612d2e57612d2d612991565b5b6000612d3c878288016129e4565b9450506020612d4d878288016129e4565b935050604085013567ffffffffffffffff811115612d6e57612d6d612996565b5b612d7a87828801612ce6565b925050606085013567ffffffffffffffff811115612d9b57612d9a612996565b5b612da787828801612ce6565b91505092959194509250565b600060208284031215612dc957612dc8612991565b5b6000612dd784828501612a1a565b91505092915050565b600081519050919050565b600082825260208201905092915050565b60005b83811015612e1a578082015181840152602081019050612dff565b83811115612e29576000848401525b50505050565b6000612e3a82612de0565b612e448185612deb565b9350612e54818560208601612dfc565b612e5d81612bc0565b840191505092915050565b60006020820190508181036000830152612e828184612e2f565b905092915050565b600081519050919050565b600082825260208201905092915050565b6000819050602082019050919050565b612ebf816129f9565b82525050565b6000612ed08261299b565b9050919050565b612ee081612ec5565b82525050565b60a082016000820151612efc6000850182612eb6565b506020820151612f0f6020850182612ed7565b506040820151612f226040850182612ed7565b506060820151612f356060850182612eb6565b506080820151612f486080850182612eb6565b50505050565b6000612f5a8383612ee6565b60a08301905092915050565b6000602082019050919050565b6000612f7e82612e8a565b612f888185612e95565b9350612f9383612ea6565b8060005b83811015612fc4578151612fab8882612f4e565b9750612fb683612f66565b925050600181019050612f97565b5085935050505092915050565b60006020820190508181036000830152612feb8184612f73565b905092915050565b600080fd5b600067ffffffffffffffff82111561301357613012612bd1565b5b61301c82612bc0565b9050602081019050919050565b82818337600083830152505050565b600061304b61304684612ff8565b612c31565b90508281526020810184848401111561306757613066612ff3565b5b613072848285613029565b509392505050565b600082601f83011261308f5761308e612bbb565b5b813561309f848260208601613038565b91505092915050565b600080600080600060a086880312156130c4576130c3612991565b5b60006130d2888289016129e4565b95505060206130e3888289016129e4565b945050604086013567ffffffffffffffff81111561310457613103612996565b5b61311088828901612ce6565b935050606086013567ffffffffffffffff81111561313157613130612996565b5b61313d88828901612ce6565b925050608086013567ffffffffffffffff81111561315e5761315d612996565b5b61316a8882890161307a565b9150509295509295909350565b6000806040838503121561318e5761318d612991565b5b600061319c85828601612a1a565b92505060206131ad85828601612a1a565b9150509250929050565b600067ffffffffffffffff8211156131d2576131d1612bd1565b5b602082029050602081019050919050565b60006131f66131f1846131b7565b612c31565b9050808382526020820190506020840283018581111561321957613218612c78565b5b835b81811015613242578061322e88826129e4565b84526020840193505060208101905061321b565b5050509392505050565b600082601f83011261326157613260612bbb565b5b81356132718482602086016131e3565b91505092915050565b6000806040838503121561329157613290612991565b5b600083013567ffffffffffffffff8111156132af576132ae612996565b5b6132bb8582860161324c565b925050602083013567ffffffffffffffff8111156132dc576132db612996565b5b6132e885828601612ce6565b9150509250929050565b600081519050919050565b600082825260208201905092915050565b6000819050602082019050919050565b600061332a8383612eb6565b60208301905092915050565b6000602082019050919050565b600061334e826132f2565b61335881856132fd565b93506133638361330e565b8060005b8381101561339457815161337b888261331e565b975061338683613336565b925050600181019050613367565b5085935050505092915050565b600060208201905081810360008301526133bb8184613343565b905092915050565b6133cc81612b1e565b81146133d757600080fd5b50565b6000813590506133e9816133c3565b92915050565b6000806040838503121561340657613405612991565b5b6000613414858286016129e4565b9250506020613425858286016133da565b9150509250929050565b600080fd5b60008083601f84011261344a57613449612bbb565b5b8235905067ffffffffffffffff8111156134675761346661342f565b5b60208301915083602082028301111561348357613482612c78565b5b9250929050565b60008083601f8401126134a05761349f612bbb565b5b8235905067ffffffffffffffff8111156134bd576134bc61342f565b5b6020830191508360018202830111156134d9576134d8612c78565b5b9250929050565b60008060008060008060008060a0898b031215613500576134ff612991565b5b600061350e8b828c016129e4565b985050602061351f8b828c016129e4565b975050604089013567ffffffffffffffff8111156135405761353f612996565b5b61354c8b828c01613434565b9650965050606089013567ffffffffffffffff81111561356f5761356e612996565b5b61357b8b828c01613434565b9450945050608089013567ffffffffffffffff81111561359e5761359d612996565b5b6135aa8b828c0161348a565b92509250509295985092959890939650565b6135c581612a99565b82525050565b60006020820190506135e060008301846135bc565b92915050565b60a0820160008201516135fc6000850182612eb6565b50602082015161360f6020850182612ed7565b5060408201516136226040850182612ed7565b5060608201516136356060850182612eb6565b5060808201516136486080850182612eb6565b50505050565b600060a08201905061366360008301846135e6565b92915050565b600067ffffffffffffffff82111561368457613683612bd1565b5b61368d82612bc0565b9050602081019050919050565b60006136ad6136a884613669565b612c31565b9050828152602081018484840111156136c9576136c8612ff3565b5b6136d4848285613029565b509392505050565b600082601f8301126136f1576136f0612bbb565b5b813561370184826020860161369a565b91505092915050565b60008060006060848603121561372357613722612991565b5b600084013567ffffffffffffffff81111561374157613740612996565b5b61374d868287016136dc565b935050602061375e86828701612a1a565b925050604061376f86828701612a1a565b9150509250925092565b600080604083850312156137905761378f612991565b5b600061379e858286016129e4565b92505060206137af858286016129e4565b9150509250929050565b60008060008060008060a087890312156137d6576137d5612991565b5b60006137e489828a016129e4565b96505060206137f589828a016129e4565b955050604061380689828a01612a1a565b945050606061381789828a01612a1a565b935050608087013567ffffffffffffffff81111561383857613837612996565b5b61384489828a0161348a565b92509250509295509295509295565b600080600080600060a0868803121561386f5761386e612991565b5b600061387d888289016129e4565b955050602061388e888289016129e4565b945050604061389f88828901612a1a565b93505060606138b088828901612a1a565b925050608086013567ffffffffffffffff8111156138d1576138d0612996565b5b6138dd8882890161307a565b9150509295509295909350565b7f455243313135353a2061646472657373207a65726f206973206e6f742061207660008201527f616c6964206f776e657200000000000000000000000000000000000000000000602082015250565b6000613946602a83612deb565b9150613951826138ea565b604082019050919050565b6000602082019050818103600083015261397581613939565b9050919050565b7f4e487b7100000000000000000000000000000000000000000000000000000000600052602260045260246000fd5b600060028204905060018216806139c357607f821691505b602082108114156139d7576139d661397c565b5b50919050565b7f4e487b7100000000000000000000000000000000000000000000000000000000600052601160045260246000fd5b6000613a17826129f9565b9150613a22836129f9565b9250827fffffffffffffffffffffffffffffffffffffffffffffffffffffffffffffffff03821115613a5757613a566139dd565b5b828201905092915050565b7f4e487b7100000000000000000000000000000000000000000000000000000000600052603260045260246000fd5b6000613a9c826129f9565b91507fffffffffffffffffffffffffffffffffffffffffffffffffffffffffffffffff821415613acf57613ace6139dd565b5b600182019050919050565b7f455243313135353a2063616c6c6572206973206e6f7420746f6b656e206f776e60008201527f6572206f7220617070726f766564000000000000000000000000000000000000602082015250565b6000613b36602e83612deb565b9150613b4182613ada565b604082019050919050565b60006020820190508181036000830152613b6581613b29565b9050919050565b7f74686520726571756573746564207175616e74697479206f662074686973206960008201527f74656d206973206e6f206c6f6e67657220617661696c61626c65000000000000602082015250565b6000613bc8603a83612deb565b9150613bd382613b6c565b604082019050919050565b60006020820190508181036000830152613bf781613bbb565b9050919050565b6000613c09826129f9565b9150613c14836129f9565b9250817fffffffffffffffffffffffffffffffffffffffffffffffffffffffffffffffff0483118215151615613c4d57613c4c6139dd565b5b828202905092915050565b7f506c65617365207375626d6974207468652061736b696e67207072696365206660008201527f6f722074686520746f6b656e0000000000000000000000000000000000000000602082015250565b6000613cb4602c83612deb565b9150613cbf82613c58565b604082019050919050565b60006020820190508181036000830152613ce381613ca7565b9050919050565b6000613cf5826129f9565b9150613d00836129f9565b925082821015613d1357613d126139dd565b5b828203905092915050565b7f455243313135353a206163636f756e747320616e6420696473206c656e67746860008201527f206d69736d617463680000000000000000000000000000000000000000000000602082015250565b6000613d7a602983612deb565b9150613d8582613d1e565b604082019050919050565b60006020820190508181036000830152613da981613d6d565b9050919050565b7f6f6e6c79206f776e65722063616e207570646174652070726963650000000000600082015250565b6000613de6601b83612deb565b9150613df182613db0565b602082019050919050565b60006020820190508181036000830152613e1581613dd9565b9050919050565b7f4e6f7420656e6f756768207061696420746f206c697374000000000000000000600082015250565b6000613e52601783612deb565b9150613e5d82613e1c565b602082019050919050565b60006020820190508181036000830152613e8181613e45565b9050919050565b7f7072696365206d75737420626520706f73697469766500000000000000000000600082015250565b6000613ebe601683612deb565b9150613ec982613e88565b602082019050919050565b60006020820190508181036000830152613eed81613eb1565b9050919050565b7f63616e6e6f7420637265617465203020696e7374616e63657300000000000000600082015250565b6000613f2a601983612deb565b9150613f3582613ef4565b602082019050919050565b60006020820190508181036000830152613f5981613f1d565b9050919050565b7f455243313135353a207472616e7366657220746f20746865207a65726f20616460008201527f6472657373000000000000000000000000000000000000000000000000000000602082015250565b6000613fbc602583612deb565b9150613fc782613f60565b604082019050919050565b60006020820190508181036000830152613feb81613faf565b9050919050565b7f455243313135353a20696e73756666696369656e742062616c616e636520666f60008201527f72207472616e7366657200000000000000000000000000000000000000000000602082015250565b600061404e602a83612deb565b915061405982613ff2565b604082019050919050565b6000602082019050818103600083015261407d81614041565b9050919050565b60006040820190506140996000830185612a6f565b6140a66020830184612a6f565b9392505050565b7f455243313135353a2069647320616e6420616d6f756e7473206c656e6774682060008201527f6d69736d61746368000000000000000000000000000000000000000000000000602082015250565b6000614109602883612deb565b9150614114826140ad565b604082019050919050565b60006020820190508181036000830152614138816140fc565b9050919050565b600060408201905081810360008301526141598185613343565b9050818103602083015261416d8184613343565b90509392505050565b7f455243313135353a2073657474696e6720617070726f76616c2073746174757360008201527f20666f722073656c660000000000000000000000000000000000000000000000602082015250565b60006141d2602983612deb565b91506141dd82614176565b604082019050919050565b60006020820190508181036000830152614201816141c5565b9050919050565b7f455243313135353a206d696e7420746f20746865207a65726f2061646472657360008201527f7300000000000000000000000000000000000000000000000000000000000000602082015250565b6000614264602183612deb565b915061426f82614208565b604082019050919050565b6000602082019050818103600083015261429381614257565b9050919050565b6142a3816129bb565b82525050565b600060a0820190506142be600083018861429a565b6142cb602083018761429a565b6142d86040830186612a6f565b6142e56060830185612a6f565b6142f26080830184612b2a565b9695505050505050565b600081519050919050565b600082825260208201905092915050565b6000614323826142fc565b61432d8185614307565b935061433d818560208601612dfc565b61434681612bc0565b840191505092915050565b600060a082019050614366600083018861429a565b614373602083018761429a565b6143806040830186612a6f565b61438d6060830185612a6f565b818103608083015261439f8184614318565b90509695505050505050565b6000815190506143ba81612ac5565b92915050565b6000602082840312156143d6576143d5612991565b5b60006143e4848285016143ab565b91505092915050565b60008160e01c9050919050565b600060033d11156144195760046000803e6144166000516143ed565b90505b90565b600060443d101561442c576144af565b614434612987565b60043d036004823e80513d602482011167ffffffffffffffff8211171561445c5750506144af565b808201805167ffffffffffffffff81111561447a57505050506144af565b80602083010160043d0385018111156144975750505050506144af565b6144a682602001850186612c00565b82955050505050505b90565b7f455243313135353a207472616e7366657220746f206e6f6e2d4552433131353560008201527f526563656976657220696d706c656d656e746572000000000000000000000000602082015250565b600061450e603483612deb565b9150614519826144b2565b604082019050919050565b6000602082019050818103600083015261453d81614501565b9050919050565b7f455243313135353a204552433131353552656365697665722072656a6563746560008201527f6420746f6b656e73000000000000000000000000000000000000000000000000602082015250565b60006145a0602883612deb565b91506145ab82614544565b604082019050919050565b600060208201905081810360008301526145cf81614593565b9050919050565b600060a0820190506145eb600083018861429a565b6145f8602083018761429a565b818103604083015261460a8186613343565b9050818103606083015261461e8185613343565b905081810360808301526146328184614318565b9050969550505050505056fea2646970667358221220a1b29fe4bad167834fb6d392db0435b0e6352b822957715eee73ddcba52383b864736f6c63430008090033",
  "linkReferences": {},
  "deployedLinkReferences": {}
}